{
	"demoTask2/demo1.sol": {
		"First": {
			"abi": [
				{
					"inputs": [],
					"name": "age2",
					"outputs": [
						{
							"internalType": "int256",
							"name": "",
							"type": "int256"
						}
					],
					"stateMutability": "view",
					"type": "function"
				},
				{
					"inputs": [],
					"name": "getAge",
					"outputs": [
						{
							"internalType": "int256",
							"name": "",
							"type": "int256"
						}
					],
					"stateMutability": "view",
					"type": "function"
				}
			],
			"devdoc": {
				"kind": "dev",
				"methods": {},
				"version": 1
			},
			"evm": {
				"assembly": "    /* \"demoTask2/demo1.sol\":71:243  contract First{\r... */\n  mstore(0x40, 0x80)\n    /* \"demoTask2/demo1.sol\":111:113  40 */\n  0x28\n    /* \"demoTask2/demo1.sol\":92:113  int internal age = 40 */\n  0x00\n  sstore\n    /* \"demoTask2/demo1.sol\":140:142  56 */\n  0x38\n    /* \"demoTask2/demo1.sol\":120:142  int public age2  =  56 */\n  0x01\n  sstore\n    /* \"demoTask2/demo1.sol\":168:170  60 */\n  0x3c\n    /* \"demoTask2/demo1.sol\":149:170  int private age3 = 60 */\n  0x02\n  sstore\n    /* \"demoTask2/demo1.sol\":71:243  contract First{\r... */\n  callvalue\n  dup1\n  iszero\n  tag_1\n  jumpi\n  0x00\n  dup1\n  revert\ntag_1:\n  pop\n  dataSize(sub_0)\n  dup1\n  dataOffset(sub_0)\n  0x00\n  codecopy\n  0x00\n  return\nstop\n\nsub_0: assembly {\n        /* \"demoTask2/demo1.sol\":71:243  contract First{\r... */\n      mstore(0x40, 0x80)\n      callvalue\n      dup1\n      iszero\n      tag_1\n      jumpi\n      0x00\n      dup1\n      revert\n    tag_1:\n      pop\n      jumpi(tag_2, lt(calldatasize, 0x04))\n      shr(0xe0, calldataload(0x00))\n      dup1\n      0x0e989a38\n      eq\n      tag_3\n      jumpi\n      dup1\n      0x967e6e65\n      eq\n      tag_4\n      jumpi\n    tag_2:\n      0x00\n      dup1\n      revert\n        /* \"demoTask2/demo1.sol\":120:142  int public age2  =  56 */\n    tag_3:\n      tag_5\n      tag_6\n      jump\t// in\n    tag_5:\n      mload(0x40)\n      tag_7\n      swap2\n      swap1\n      tag_8\n      jump\t// in\n    tag_7:\n      mload(0x40)\n      dup1\n      swap2\n      sub\n      swap1\n      return\n        /* \"demoTask2/demo1.sol\":179:240  function getAge() public view returns (int){\r... */\n    tag_4:\n      tag_9\n      tag_10\n      jump\t// in\n    tag_9:\n      mload(0x40)\n      tag_11\n      swap2\n      swap1\n      tag_8\n      jump\t// in\n    tag_11:\n      mload(0x40)\n      dup1\n      swap2\n      sub\n      swap1\n      return\n        /* \"demoTask2/demo1.sol\":120:142  int public age2  =  56 */\n    tag_6:\n      sload(0x01)\n      dup2\n      jump\t// out\n        /* \"demoTask2/demo1.sol\":179:240  function getAge() public view returns (int){\r... */\n    tag_10:\n        /* \"demoTask2/demo1.sol\":218:221  int */\n      0x00\n        /* \"demoTask2/demo1.sol\":179:240  function getAge() public view returns (int){\r... */\n      swap1\n      jump\t// out\n        /* \"#utility.yul\":7:122   */\n    tag_14:\n        /* \"#utility.yul\":92:115   */\n      tag_16\n        /* \"#utility.yul\":109:114   */\n      dup2\n        /* \"#utility.yul\":92:115   */\n      tag_17\n      jump\t// in\n    tag_16:\n        /* \"#utility.yul\":87:90   */\n      dup3\n        /* \"#utility.yul\":80:116   */\n      mstore\n        /* \"#utility.yul\":7:122   */\n      pop\n      pop\n      jump\t// out\n        /* \"#utility.yul\":128:346   */\n    tag_8:\n        /* \"#utility.yul\":219:223   */\n      0x00\n        /* \"#utility.yul\":257:259   */\n      0x20\n        /* \"#utility.yul\":246:255   */\n      dup3\n        /* \"#utility.yul\":242:260   */\n      add\n        /* \"#utility.yul\":234:260   */\n      swap1\n      pop\n        /* \"#utility.yul\":270:339   */\n      tag_19\n        /* \"#utility.yul\":336:337   */\n      0x00\n        /* \"#utility.yul\":325:334   */\n      dup4\n        /* \"#utility.yul\":321:338   */\n      add\n        /* \"#utility.yul\":312:318   */\n      dup5\n        /* \"#utility.yul\":270:339   */\n      tag_14\n      jump\t// in\n    tag_19:\n        /* \"#utility.yul\":128:346   */\n      swap3\n      swap2\n      pop\n      pop\n      jump\t// out\n        /* \"#utility.yul\":352:428   */\n    tag_17:\n        /* \"#utility.yul\":388:395   */\n      0x00\n        /* \"#utility.yul\":417:422   */\n      dup2\n        /* \"#utility.yul\":406:422   */\n      swap1\n      pop\n        /* \"#utility.yul\":352:428   */\n      swap2\n      swap1\n      pop\n      jump\t// out\n\n    auxdata: 0xa2646970667358221220756e05cd3fd9686b36d1a1914e37b5770c4276ac58ac7c32ff66a5b462fce56564736f6c63430008070033\n}\n",
				"bytecode": {
					"linkReferences": {},
					"object": "608060405260286000556038600155603c60025534801561001f57600080fd5b5060dc8061002e6000396000f3fe6080604052348015600f57600080fd5b506004361060325760003560e01c80630e989a38146037578063967e6e65146051575b600080fd5b603d606b565b604051604891906083565b60405180910390f35b60576071565b604051606291906083565b60405180910390f35b60015481565b600090565b607d81609c565b82525050565b6000602082019050609660008301846076565b92915050565b600081905091905056fea2646970667358221220756e05cd3fd9686b36d1a1914e37b5770c4276ac58ac7c32ff66a5b462fce56564736f6c63430008070033",
					"opcodes": "PUSH1 0x80 PUSH1 0x40 MSTORE PUSH1 0x28 PUSH1 0x0 SSTORE PUSH1 0x38 PUSH1 0x1 SSTORE PUSH1 0x3C PUSH1 0x2 SSTORE CALLVALUE DUP1 ISZERO PUSH2 0x1F JUMPI PUSH1 0x0 DUP1 REVERT JUMPDEST POP PUSH1 0xDC DUP1 PUSH2 0x2E PUSH1 0x0 CODECOPY PUSH1 0x0 RETURN INVALID PUSH1 0x80 PUSH1 0x40 MSTORE CALLVALUE DUP1 ISZERO PUSH1 0xF JUMPI PUSH1 0x0 DUP1 REVERT JUMPDEST POP PUSH1 0x4 CALLDATASIZE LT PUSH1 0x32 JUMPI PUSH1 0x0 CALLDATALOAD PUSH1 0xE0 SHR DUP1 PUSH4 0xE989A38 EQ PUSH1 0x37 JUMPI DUP1 PUSH4 0x967E6E65 EQ PUSH1 0x51 JUMPI JUMPDEST PUSH1 0x0 DUP1 REVERT JUMPDEST PUSH1 0x3D PUSH1 0x6B JUMP JUMPDEST PUSH1 0x40 MLOAD PUSH1 0x48 SWAP2 SWAP1 PUSH1 0x83 JUMP JUMPDEST PUSH1 0x40 MLOAD DUP1 SWAP2 SUB SWAP1 RETURN JUMPDEST PUSH1 0x57 PUSH1 0x71 JUMP JUMPDEST PUSH1 0x40 MLOAD PUSH1 0x62 SWAP2 SWAP1 PUSH1 0x83 JUMP JUMPDEST PUSH1 0x40 MLOAD DUP1 SWAP2 SUB SWAP1 RETURN JUMPDEST PUSH1 0x1 SLOAD DUP2 JUMP JUMPDEST PUSH1 0x0 SWAP1 JUMP JUMPDEST PUSH1 0x7D DUP2 PUSH1 0x9C JUMP JUMPDEST DUP3 MSTORE POP POP JUMP JUMPDEST PUSH1 0x0 PUSH1 0x20 DUP3 ADD SWAP1 POP PUSH1 0x96 PUSH1 0x0 DUP4 ADD DUP5 PUSH1 0x76 JUMP JUMPDEST SWAP3 SWAP2 POP POP JUMP JUMPDEST PUSH1 0x0 DUP2 SWAP1 POP SWAP2 SWAP1 POP JUMP INVALID LOG2 PUSH5 0x6970667358 0x22 SLT KECCAK256 PUSH22 0x6E05CD3FD9686B36D1A1914E37B5770C4276AC58AC7C ORIGIN SELFDESTRUCT PUSH7 0xA5B462FCE56564 PUSH20 0x6F6C634300080700330000000000000000000000 "
				},
				"gasEstimates": {
					"creation": {
						"codeDepositCost": "44000",
						"executionCost": "66411",
						"totalCost": "110411"
					},
					"external": {
						"age2()": "2407",
						"getAge()": "329"
					}
				},
				"methodIdentifiers": {
					"age2()": "0e989a38",
					"getAge()": "967e6e65"
				}
			},
			"storageLayout": {
				"storage": [
					{
						"astId": 4,
						"contract": "demoTask2/demo1.sol:First",
						"label": "age",
						"offset": 0,
						"slot": "0",
						"type": "t_int256"
					},
					{
						"astId": 7,
						"contract": "demoTask2/demo1.sol:First",
						"label": "age2",
						"offset": 0,
						"slot": "1",
						"type": "t_int256"
					},
					{
						"astId": 10,
						"contract": "demoTask2/demo1.sol:First",
						"label": "age3",
						"offset": 0,
						"slot": "2",
						"type": "t_int256"
					}
				],
				"types": {
					"t_int256": {
						"encoding": "inplace",
						"label": "int256",
						"numberOfBytes": "32"
					}
				}
			},
			"userdoc": {
				"kind": "user",
				"methods": {},
				"version": 1
			}
		}
	}
}