{
	"functionDemo/funcTask1.sol": {
		"First": {
			"abi": [
				{
					"inputs": [],
					"name": "doSOmeWork",
					"outputs": [],
					"stateMutability": "view",
					"type": "function"
				},
				{
					"inputs": [],
					"name": "getAge",
					"outputs": [
						{
							"internalType": "uint256",
							"name": "",
							"type": "uint256"
						}
					],
					"stateMutability": "view",
					"type": "function"
				}
			],
			"devdoc": {
				"kind": "dev",
				"methods": {},
				"version": 1
			},
			"evm": {
				"assembly": "    /* \"functionDemo/funcTask1.sol\":70:286  contract First{\r... */\n  mstore(0x40, 0x80)\n    /* \"functionDemo/funcTask1.sol\":102:104  56 */\n  0x38\n    /* \"functionDemo/funcTask1.sol\":91:104  uint age = 56 */\n  0x00\n  sstore\n    /* \"functionDemo/funcTask1.sol\":70:286  contract First{\r... */\n  callvalue\n  dup1\n  iszero\n  tag_1\n  jumpi\n  0x00\n  dup1\n  revert\ntag_1:\n  pop\n  dataSize(sub_0)\n  dup1\n  dataOffset(sub_0)\n  0x00\n  codecopy\n  0x00\n  return\nstop\n\nsub_0: assembly {\n        /* \"functionDemo/funcTask1.sol\":70:286  contract First{\r... */\n      mstore(0x40, 0x80)\n      callvalue\n      dup1\n      iszero\n      tag_1\n      jumpi\n      0x00\n      dup1\n      revert\n    tag_1:\n      pop\n      jumpi(tag_2, lt(calldatasize, 0x04))\n      shr(0xe0, calldataload(0x00))\n      dup1\n      0x5521eb05\n      eq\n      tag_3\n      jumpi\n      dup1\n      0x967e6e65\n      eq\n      tag_4\n      jumpi\n    tag_2:\n      0x00\n      dup1\n      revert\n        /* \"functionDemo/funcTask1.sol\":111:154  function doSOmeWork() public view{\r... */\n    tag_3:\n      tag_5\n      tag_6\n      jump\t// in\n    tag_5:\n      stop\n        /* \"functionDemo/funcTask1.sol\":160:283  function getAge() public view returns (uint){\r... */\n    tag_4:\n      tag_7\n      tag_8\n      jump\t// in\n    tag_7:\n      mload(0x40)\n      tag_9\n      swap2\n      swap1\n      tag_10\n      jump\t// in\n    tag_9:\n      mload(0x40)\n      dup1\n      swap2\n      sub\n      swap1\n      return\n        /* \"functionDemo/funcTask1.sol\":111:154  function doSOmeWork() public view{\r... */\n    tag_6:\n      jump\t// out\n        /* \"functionDemo/funcTask1.sol\":160:283  function getAge() public view returns (uint){\r... */\n    tag_8:\n        /* \"functionDemo/funcTask1.sol\":199:203  uint */\n      0x00\n        /* \"functionDemo/funcTask1.sol\":215:221  uint a */\n      dup1\n        /* \"functionDemo/funcTask1.sol\":230:231  2 */\n      0x02\n        /* \"functionDemo/funcTask1.sol\":224:227  age */\n      sload(0x00)\n        /* \"functionDemo/funcTask1.sol\":224:231  age * 2 */\n      tag_13\n      swap2\n      swap1\n      tag_14\n      jump\t// in\n    tag_13:\n        /* \"functionDemo/funcTask1.sol\":215:231  uint a = age * 2 */\n      swap1\n      pop\n        /* \"functionDemo/funcTask1.sol\":242:254  doSOmeWork() */\n      tag_15\n        /* \"functionDemo/funcTask1.sol\":242:252  doSOmeWork */\n      tag_6\n        /* \"functionDemo/funcTask1.sol\":242:254  doSOmeWork() */\n      jump\t// in\n    tag_15:\n        /* \"functionDemo/funcTask1.sol\":272:275  age */\n      sload(0x00)\n        /* \"functionDemo/funcTask1.sol\":265:275  return age */\n      swap2\n      pop\n      pop\n        /* \"functionDemo/funcTask1.sol\":160:283  function getAge() public view returns (uint){\r... */\n      swap1\n      jump\t// out\n        /* \"#utility.yul\":7:125   */\n    tag_17:\n        /* \"#utility.yul\":94:118   */\n      tag_19\n        /* \"#utility.yul\":112:117   */\n      dup2\n        /* \"#utility.yul\":94:118   */\n      tag_20\n      jump\t// in\n    tag_19:\n        /* \"#utility.yul\":89:92   */\n      dup3\n        /* \"#utility.yul\":82:119   */\n      mstore\n        /* \"#utility.yul\":7:125   */\n      pop\n      pop\n      jump\t// out\n        /* \"#utility.yul\":131:353   */\n    tag_10:\n        /* \"#utility.yul\":224:228   */\n      0x00\n        /* \"#utility.yul\":262:264   */\n      0x20\n        /* \"#utility.yul\":251:260   */\n      dup3\n        /* \"#utility.yul\":247:265   */\n      add\n        /* \"#utility.yul\":239:265   */\n      swap1\n      pop\n        /* \"#utility.yul\":275:346   */\n      tag_22\n        /* \"#utility.yul\":343:344   */\n      0x00\n        /* \"#utility.yul\":332:341   */\n      dup4\n        /* \"#utility.yul\":328:345   */\n      add\n        /* \"#utility.yul\":319:325   */\n      dup5\n        /* \"#utility.yul\":275:346   */\n      tag_17\n      jump\t// in\n    tag_22:\n        /* \"#utility.yul\":131:353   */\n      swap3\n      swap2\n      pop\n      pop\n      jump\t// out\n        /* \"#utility.yul\":359:707   */\n    tag_14:\n        /* \"#utility.yul\":399:406   */\n      0x00\n        /* \"#utility.yul\":422:442   */\n      tag_24\n        /* \"#utility.yul\":440:441   */\n      dup3\n        /* \"#utility.yul\":422:442   */\n      tag_20\n      jump\t// in\n    tag_24:\n        /* \"#utility.yul\":417:442   */\n      swap2\n      pop\n        /* \"#utility.yul\":456:476   */\n      tag_25\n        /* \"#utility.yul\":474:475   */\n      dup4\n        /* \"#utility.yul\":456:476   */\n      tag_20\n      jump\t// in\n    tag_25:\n        /* \"#utility.yul\":451:476   */\n      swap3\n      pop\n        /* \"#utility.yul\":644:645   */\n      dup2\n        /* \"#utility.yul\":576:642   */\n      0xffffffffffffffffffffffffffffffffffffffffffffffffffffffffffffffff\n        /* \"#utility.yul\":572:646   */\n      div\n        /* \"#utility.yul\":569:570   */\n      dup4\n        /* \"#utility.yul\":566:647   */\n      gt\n        /* \"#utility.yul\":561:562   */\n      dup3\n        /* \"#utility.yul\":554:563   */\n      iszero\n        /* \"#utility.yul\":547:564   */\n      iszero\n        /* \"#utility.yul\":543:648   */\n      and\n        /* \"#utility.yul\":540:671   */\n      iszero\n      tag_26\n      jumpi\n        /* \"#utility.yul\":651:669   */\n      tag_27\n      tag_28\n      jump\t// in\n    tag_27:\n        /* \"#utility.yul\":540:671   */\n    tag_26:\n        /* \"#utility.yul\":699:700   */\n      dup3\n        /* \"#utility.yul\":696:697   */\n      dup3\n        /* \"#utility.yul\":692:701   */\n      mul\n        /* \"#utility.yul\":681:701   */\n      swap1\n      pop\n        /* \"#utility.yul\":359:707   */\n      swap3\n      swap2\n      pop\n      pop\n      jump\t// out\n        /* \"#utility.yul\":713:790   */\n    tag_20:\n        /* \"#utility.yul\":750:757   */\n      0x00\n        /* \"#utility.yul\":779:784   */\n      dup2\n        /* \"#utility.yul\":768:784   */\n      swap1\n      pop\n        /* \"#utility.yul\":713:790   */\n      swap2\n      swap1\n      pop\n      jump\t// out\n        /* \"#utility.yul\":796:976   */\n    tag_28:\n        /* \"#utility.yul\":844:921   */\n      0x4e487b7100000000000000000000000000000000000000000000000000000000\n        /* \"#utility.yul\":841:842   */\n      0x00\n        /* \"#utility.yul\":834:922   */\n      mstore\n        /* \"#utility.yul\":941:945   */\n      0x11\n        /* \"#utility.yul\":938:939   */\n      0x04\n        /* \"#utility.yul\":931:946   */\n      mstore\n        /* \"#utility.yul\":965:969   */\n      0x24\n        /* \"#utility.yul\":962:963   */\n      0x00\n        /* \"#utility.yul\":955:970   */\n      revert\n\n    auxdata: 0xa26469706673582212202ad861f6c3ef633d6ee9f5dfdd5b864961eaed40bf80665e2b7bb3194f5fb21464736f6c63430008070033\n}\n",
				"bytecode": {
					"linkReferences": {},
					"object": "6080604052603860005534801561001557600080fd5b5061017d806100256000396000f3fe608060405234801561001057600080fd5b50600436106100365760003560e01c80635521eb051461003b578063967e6e6514610045575b600080fd5b610043610063565b005b61004d610065565b60405161005a9190610099565b60405180910390f35b565b600080600260005461007791906100b4565b9050610081610063565b60005491505090565b6100938161010e565b82525050565b60006020820190506100ae600083018461008a565b92915050565b60006100bf8261010e565b91506100ca8361010e565b9250817fffffffffffffffffffffffffffffffffffffffffffffffffffffffffffffffff048311821515161561010357610102610118565b5b828202905092915050565b6000819050919050565b7f4e487b7100000000000000000000000000000000000000000000000000000000600052601160045260246000fdfea26469706673582212202ad861f6c3ef633d6ee9f5dfdd5b864961eaed40bf80665e2b7bb3194f5fb21464736f6c63430008070033",
					"opcodes": "PUSH1 0x80 PUSH1 0x40 MSTORE PUSH1 0x38 PUSH1 0x0 SSTORE CALLVALUE DUP1 ISZERO PUSH2 0x15 JUMPI PUSH1 0x0 DUP1 REVERT JUMPDEST POP PUSH2 0x17D DUP1 PUSH2 0x25 PUSH1 0x0 CODECOPY PUSH1 0x0 RETURN INVALID PUSH1 0x80 PUSH1 0x40 MSTORE CALLVALUE DUP1 ISZERO PUSH2 0x10 JUMPI PUSH1 0x0 DUP1 REVERT JUMPDEST POP PUSH1 0x4 CALLDATASIZE LT PUSH2 0x36 JUMPI PUSH1 0x0 CALLDATALOAD PUSH1 0xE0 SHR DUP1 PUSH4 0x5521EB05 EQ PUSH2 0x3B JUMPI DUP1 PUSH4 0x967E6E65 EQ PUSH2 0x45 JUMPI JUMPDEST PUSH1 0x0 DUP1 REVERT JUMPDEST PUSH2 0x43 PUSH2 0x63 JUMP JUMPDEST STOP JUMPDEST PUSH2 0x4D PUSH2 0x65 JUMP JUMPDEST PUSH1 0x40 MLOAD PUSH2 0x5A SWAP2 SWAP1 PUSH2 0x99 JUMP JUMPDEST PUSH1 0x40 MLOAD DUP1 SWAP2 SUB SWAP1 RETURN JUMPDEST JUMP JUMPDEST PUSH1 0x0 DUP1 PUSH1 0x2 PUSH1 0x0 SLOAD PUSH2 0x77 SWAP2 SWAP1 PUSH2 0xB4 JUMP JUMPDEST SWAP1 POP PUSH2 0x81 PUSH2 0x63 JUMP JUMPDEST PUSH1 0x0 SLOAD SWAP2 POP POP SWAP1 JUMP JUMPDEST PUSH2 0x93 DUP2 PUSH2 0x10E JUMP JUMPDEST DUP3 MSTORE POP POP JUMP JUMPDEST PUSH1 0x0 PUSH1 0x20 DUP3 ADD SWAP1 POP PUSH2 0xAE PUSH1 0x0 DUP4 ADD DUP5 PUSH2 0x8A JUMP JUMPDEST SWAP3 SWAP2 POP POP JUMP JUMPDEST PUSH1 0x0 PUSH2 0xBF DUP3 PUSH2 0x10E JUMP JUMPDEST SWAP2 POP PUSH2 0xCA DUP4 PUSH2 0x10E JUMP JUMPDEST SWAP3 POP DUP2 PUSH32 0xFFFFFFFFFFFFFFFFFFFFFFFFFFFFFFFFFFFFFFFFFFFFFFFFFFFFFFFFFFFFFFFF DIV DUP4 GT DUP3 ISZERO ISZERO AND ISZERO PUSH2 0x103 JUMPI PUSH2 0x102 PUSH2 0x118 JUMP JUMPDEST JUMPDEST DUP3 DUP3 MUL SWAP1 POP SWAP3 SWAP2 POP POP JUMP JUMPDEST PUSH1 0x0 DUP2 SWAP1 POP SWAP2 SWAP1 POP JUMP JUMPDEST PUSH32 0x4E487B7100000000000000000000000000000000000000000000000000000000 PUSH1 0x0 MSTORE PUSH1 0x11 PUSH1 0x4 MSTORE PUSH1 0x24 PUSH1 0x0 REVERT INVALID LOG2 PUSH5 0x6970667358 0x22 SLT KECCAK256 0x2A 0xD8 PUSH2 0xF6C3 0xEF PUSH4 0x3D6EE9F5 0xDF 0xDD JUMPDEST DUP7 0x49 PUSH2 0xEAED BLOCKHASH 0xBF DUP1 PUSH7 0x5E2B7BB3194F5F 0xB2 EQ PUSH5 0x736F6C6343 STOP ADDMOD SMOD STOP CALLER "
				},
				"gasEstimates": {
					"creation": {
						"codeDepositCost": "76200",
						"executionCost": "22229",
						"totalCost": "98429"
					},
					"external": {
						"doSOmeWork()": "122",
						"getAge()": "infinite"
					}
				},
				"methodIdentifiers": {
					"doSOmeWork()": "5521eb05",
					"getAge()": "967e6e65"
				}
			},
			"storageLayout": {
				"storage": [
					{
						"astId": 4,
						"contract": "functionDemo/funcTask1.sol:First",
						"label": "age",
						"offset": 0,
						"slot": "0",
						"type": "t_uint256"
					}
				],
				"types": {
					"t_uint256": {
						"encoding": "inplace",
						"label": "uint256",
						"numberOfBytes": "32"
					}
				}
			},
			"userdoc": {
				"kind": "user",
				"methods": {},
				"version": 1
			}
		}
	}
}