{
	"data": {
		"bytecode": {
			"linkReferences": {},
			"object": "608060405234801561001057600080fd5b506104cc806100206000396000f3fe608060405234801561001057600080fd5b506004361061004c5760003560e01c80630add6ef214610051578063ad95d6b41461006f578063e9b6190914610079578063ee49500214610097575b600080fd5b6100596100b5565b6040516100669190610340565b60405180910390f35b6100776100c8565b005b61008161018c565b60405161008e919061035b565b60405180910390f35b61009f61021a565b6040516100ac9190610325565b60405180910390f35b600060019054906101000a900460f01b81565b7f61000000000000000000000000000000000000000000000000000000000000006000806101000a81548160ff021916908360f81c02179055507f6162000000000000000000000000000000000000000000000000000000000000600060016101000a81548161ffff021916908360f01c02179055506040518060400160405280600381526020017f78797a00000000000000000000000000000000000000000000000000000000008152506001908051906020019061018992919061022b565b50565b6001805461019990610424565b80601f01602080910402602001604051908101604052809291908181526020018280546101c590610424565b80156102125780601f106101e757610100808354040283529160200191610212565b820191906000526020600020905b8154815290600101906020018083116101f557829003601f168201915b505050505081565b60008054906101000a900460f81b81565b82805461023790610424565b90600052602060002090601f01602090048101928261025957600085556102a0565b82601f1061027257805160ff19168380011785556102a0565b828001600101855582156102a0579182015b8281111561029f578251825591602001919060010190610284565b5b5090506102ad91906102b1565b5090565b5b808211156102ca5760008160009055506001016102b2565b5090565b6102d781610399565b82525050565b6102e6816103c5565b82525050565b60006102f78261037d565b6103018185610388565b93506103118185602086016103f1565b61031a81610485565b840191505092915050565b600060208201905061033a60008301846102ce565b92915050565b600060208201905061035560008301846102dd565b92915050565b6000602082019050818103600083015261037581846102ec565b905092915050565b600081519050919050565b600082825260208201905092915050565b60007fff0000000000000000000000000000000000000000000000000000000000000082169050919050565b60007fffff00000000000000000000000000000000000000000000000000000000000082169050919050565b60005b8381101561040f5780820151818401526020810190506103f4565b8381111561041e576000848401525b50505050565b6000600282049050600182168061043c57607f821691505b602082108114156104505761044f610456565b5b50919050565b7f4e487b7100000000000000000000000000000000000000000000000000000000600052602260045260246000fd5b6000601f19601f830116905091905056fea26469706673582212205ecd54d39540ae6d8e2d17dd50cdff448691fa26f7939c68a3fcc2b75a7e13de64736f6c63430008070033",
			"opcodes": "PUSH1 0x80 PUSH1 0x40 MSTORE CALLVALUE DUP1 ISZERO PUSH2 0x10 JUMPI PUSH1 0x0 DUP1 REVERT JUMPDEST POP PUSH2 0x4CC DUP1 PUSH2 0x20 PUSH1 0x0 CODECOPY PUSH1 0x0 RETURN INVALID PUSH1 0x80 PUSH1 0x40 MSTORE CALLVALUE DUP1 ISZERO PUSH2 0x10 JUMPI PUSH1 0x0 DUP1 REVERT JUMPDEST POP PUSH1 0x4 CALLDATASIZE LT PUSH2 0x4C JUMPI PUSH1 0x0 CALLDATALOAD PUSH1 0xE0 SHR DUP1 PUSH4 0xADD6EF2 EQ PUSH2 0x51 JUMPI DUP1 PUSH4 0xAD95D6B4 EQ PUSH2 0x6F JUMPI DUP1 PUSH4 0xE9B61909 EQ PUSH2 0x79 JUMPI DUP1 PUSH4 0xEE495002 EQ PUSH2 0x97 JUMPI JUMPDEST PUSH1 0x0 DUP1 REVERT JUMPDEST PUSH2 0x59 PUSH2 0xB5 JUMP JUMPDEST PUSH1 0x40 MLOAD PUSH2 0x66 SWAP2 SWAP1 PUSH2 0x340 JUMP JUMPDEST PUSH1 0x40 MLOAD DUP1 SWAP2 SUB SWAP1 RETURN JUMPDEST PUSH2 0x77 PUSH2 0xC8 JUMP JUMPDEST STOP JUMPDEST PUSH2 0x81 PUSH2 0x18C JUMP JUMPDEST PUSH1 0x40 MLOAD PUSH2 0x8E SWAP2 SWAP1 PUSH2 0x35B JUMP JUMPDEST PUSH1 0x40 MLOAD DUP1 SWAP2 SUB SWAP1 RETURN JUMPDEST PUSH2 0x9F PUSH2 0x21A JUMP JUMPDEST PUSH1 0x40 MLOAD PUSH2 0xAC SWAP2 SWAP1 PUSH2 0x325 JUMP JUMPDEST PUSH1 0x40 MLOAD DUP1 SWAP2 SUB SWAP1 RETURN JUMPDEST PUSH1 0x0 PUSH1 0x1 SWAP1 SLOAD SWAP1 PUSH2 0x100 EXP SWAP1 DIV PUSH1 0xF0 SHL DUP2 JUMP JUMPDEST PUSH32 0x6100000000000000000000000000000000000000000000000000000000000000 PUSH1 0x0 DUP1 PUSH2 0x100 EXP DUP2 SLOAD DUP2 PUSH1 0xFF MUL NOT AND SWAP1 DUP4 PUSH1 0xF8 SHR MUL OR SWAP1 SSTORE POP PUSH32 0x6162000000000000000000000000000000000000000000000000000000000000 PUSH1 0x0 PUSH1 0x1 PUSH2 0x100 EXP DUP2 SLOAD DUP2 PUSH2 0xFFFF MUL NOT AND SWAP1 DUP4 PUSH1 0xF0 SHR MUL OR SWAP1 SSTORE POP PUSH1 0x40 MLOAD DUP1 PUSH1 0x40 ADD PUSH1 0x40 MSTORE DUP1 PUSH1 0x3 DUP2 MSTORE PUSH1 0x20 ADD PUSH32 0x78797A0000000000000000000000000000000000000000000000000000000000 DUP2 MSTORE POP PUSH1 0x1 SWAP1 DUP1 MLOAD SWAP1 PUSH1 0x20 ADD SWAP1 PUSH2 0x189 SWAP3 SWAP2 SWAP1 PUSH2 0x22B JUMP JUMPDEST POP JUMP JUMPDEST PUSH1 0x1 DUP1 SLOAD PUSH2 0x199 SWAP1 PUSH2 0x424 JUMP JUMPDEST DUP1 PUSH1 0x1F ADD PUSH1 0x20 DUP1 SWAP2 DIV MUL PUSH1 0x20 ADD PUSH1 0x40 MLOAD SWAP1 DUP2 ADD PUSH1 0x40 MSTORE DUP1 SWAP3 SWAP2 SWAP1 DUP2 DUP2 MSTORE PUSH1 0x20 ADD DUP3 DUP1 SLOAD PUSH2 0x1C5 SWAP1 PUSH2 0x424 JUMP JUMPDEST DUP1 ISZERO PUSH2 0x212 JUMPI DUP1 PUSH1 0x1F LT PUSH2 0x1E7 JUMPI PUSH2 0x100 DUP1 DUP4 SLOAD DIV MUL DUP4 MSTORE SWAP2 PUSH1 0x20 ADD SWAP2 PUSH2 0x212 JUMP JUMPDEST DUP3 ADD SWAP2 SWAP1 PUSH1 0x0 MSTORE PUSH1 0x20 PUSH1 0x0 KECCAK256 SWAP1 JUMPDEST DUP2 SLOAD DUP2 MSTORE SWAP1 PUSH1 0x1 ADD SWAP1 PUSH1 0x20 ADD DUP1 DUP4 GT PUSH2 0x1F5 JUMPI DUP3 SWAP1 SUB PUSH1 0x1F AND DUP3 ADD SWAP2 JUMPDEST POP POP POP POP POP DUP2 JUMP JUMPDEST PUSH1 0x0 DUP1 SLOAD SWAP1 PUSH2 0x100 EXP SWAP1 DIV PUSH1 0xF8 SHL DUP2 JUMP JUMPDEST DUP3 DUP1 SLOAD PUSH2 0x237 SWAP1 PUSH2 0x424 JUMP JUMPDEST SWAP1 PUSH1 0x0 MSTORE PUSH1 0x20 PUSH1 0x0 KECCAK256 SWAP1 PUSH1 0x1F ADD PUSH1 0x20 SWAP1 DIV DUP2 ADD SWAP3 DUP3 PUSH2 0x259 JUMPI PUSH1 0x0 DUP6 SSTORE PUSH2 0x2A0 JUMP JUMPDEST DUP3 PUSH1 0x1F LT PUSH2 0x272 JUMPI DUP1 MLOAD PUSH1 0xFF NOT AND DUP4 DUP1 ADD OR DUP6 SSTORE PUSH2 0x2A0 JUMP JUMPDEST DUP3 DUP1 ADD PUSH1 0x1 ADD DUP6 SSTORE DUP3 ISZERO PUSH2 0x2A0 JUMPI SWAP2 DUP3 ADD JUMPDEST DUP3 DUP2 GT ISZERO PUSH2 0x29F JUMPI DUP3 MLOAD DUP3 SSTORE SWAP2 PUSH1 0x20 ADD SWAP2 SWAP1 PUSH1 0x1 ADD SWAP1 PUSH2 0x284 JUMP JUMPDEST JUMPDEST POP SWAP1 POP PUSH2 0x2AD SWAP2 SWAP1 PUSH2 0x2B1 JUMP JUMPDEST POP SWAP1 JUMP JUMPDEST JUMPDEST DUP1 DUP3 GT ISZERO PUSH2 0x2CA JUMPI PUSH1 0x0 DUP2 PUSH1 0x0 SWAP1 SSTORE POP PUSH1 0x1 ADD PUSH2 0x2B2 JUMP JUMPDEST POP SWAP1 JUMP JUMPDEST PUSH2 0x2D7 DUP2 PUSH2 0x399 JUMP JUMPDEST DUP3 MSTORE POP POP JUMP JUMPDEST PUSH2 0x2E6 DUP2 PUSH2 0x3C5 JUMP JUMPDEST DUP3 MSTORE POP POP JUMP JUMPDEST PUSH1 0x0 PUSH2 0x2F7 DUP3 PUSH2 0x37D JUMP JUMPDEST PUSH2 0x301 DUP2 DUP6 PUSH2 0x388 JUMP JUMPDEST SWAP4 POP PUSH2 0x311 DUP2 DUP6 PUSH1 0x20 DUP7 ADD PUSH2 0x3F1 JUMP JUMPDEST PUSH2 0x31A DUP2 PUSH2 0x485 JUMP JUMPDEST DUP5 ADD SWAP2 POP POP SWAP3 SWAP2 POP POP JUMP JUMPDEST PUSH1 0x0 PUSH1 0x20 DUP3 ADD SWAP1 POP PUSH2 0x33A PUSH1 0x0 DUP4 ADD DUP5 PUSH2 0x2CE JUMP JUMPDEST SWAP3 SWAP2 POP POP JUMP JUMPDEST PUSH1 0x0 PUSH1 0x20 DUP3 ADD SWAP1 POP PUSH2 0x355 PUSH1 0x0 DUP4 ADD DUP5 PUSH2 0x2DD JUMP JUMPDEST SWAP3 SWAP2 POP POP JUMP JUMPDEST PUSH1 0x0 PUSH1 0x20 DUP3 ADD SWAP1 POP DUP2 DUP2 SUB PUSH1 0x0 DUP4 ADD MSTORE PUSH2 0x375 DUP2 DUP5 PUSH2 0x2EC JUMP JUMPDEST SWAP1 POP SWAP3 SWAP2 POP POP JUMP JUMPDEST PUSH1 0x0 DUP2 MLOAD SWAP1 POP SWAP2 SWAP1 POP JUMP JUMPDEST PUSH1 0x0 DUP3 DUP3 MSTORE PUSH1 0x20 DUP3 ADD SWAP1 POP SWAP3 SWAP2 POP POP JUMP JUMPDEST PUSH1 0x0 PUSH32 0xFF00000000000000000000000000000000000000000000000000000000000000 DUP3 AND SWAP1 POP SWAP2 SWAP1 POP JUMP JUMPDEST PUSH1 0x0 PUSH32 0xFFFF000000000000000000000000000000000000000000000000000000000000 DUP3 AND SWAP1 POP SWAP2 SWAP1 POP JUMP JUMPDEST PUSH1 0x0 JUMPDEST DUP4 DUP2 LT ISZERO PUSH2 0x40F JUMPI DUP1 DUP3 ADD MLOAD DUP2 DUP5 ADD MSTORE PUSH1 0x20 DUP2 ADD SWAP1 POP PUSH2 0x3F4 JUMP JUMPDEST DUP4 DUP2 GT ISZERO PUSH2 0x41E JUMPI PUSH1 0x0 DUP5 DUP5 ADD MSTORE JUMPDEST POP POP POP POP JUMP JUMPDEST PUSH1 0x0 PUSH1 0x2 DUP3 DIV SWAP1 POP PUSH1 0x1 DUP3 AND DUP1 PUSH2 0x43C JUMPI PUSH1 0x7F DUP3 AND SWAP2 POP JUMPDEST PUSH1 0x20 DUP3 LT DUP2 EQ ISZERO PUSH2 0x450 JUMPI PUSH2 0x44F PUSH2 0x456 JUMP JUMPDEST JUMPDEST POP SWAP2 SWAP1 POP JUMP JUMPDEST PUSH32 0x4E487B7100000000000000000000000000000000000000000000000000000000 PUSH1 0x0 MSTORE PUSH1 0x22 PUSH1 0x4 MSTORE PUSH1 0x24 PUSH1 0x0 REVERT JUMPDEST PUSH1 0x0 PUSH1 0x1F NOT PUSH1 0x1F DUP4 ADD AND SWAP1 POP SWAP2 SWAP1 POP JUMP INVALID LOG2 PUSH5 0x6970667358 0x22 SLT KECCAK256 0x5E 0xCD SLOAD 0xD3 SWAP6 BLOCKHASH 0xAE PUSH14 0x8E2D17DD50CDFF448691FA26F793 SWAP13 PUSH9 0xA3FCC2B75A7E13DE64 PUSH20 0x6F6C634300080700330000000000000000000000 "
		},
		"gasEstimates": {
			"creation": {
				"codeDepositCost": "245600",
				"executionCost": "287",
				"totalCost": "245887"
			},
			"external": {
				"b1()": "2512",
				"b2()": "2499",
				"b3()": "infinite",
				"setBytes()": "infinite"
			}
		},
		"methodIdentifiers": {
			"b1()": "ee495002",
			"b2()": "0add6ef2",
			"b3()": "e9b61909",
			"setBytes()": "ad95d6b4"
		}
	},
	"abi": [
		{
			"inputs": [],
			"name": "b1",
			"outputs": [
				{
					"internalType": "bytes1",
					"name": "",
					"type": "bytes1"
				}
			],
			"stateMutability": "view",
			"type": "function"
		},
		{
			"inputs": [],
			"name": "b2",
			"outputs": [
				{
					"internalType": "bytes2",
					"name": "",
					"type": "bytes2"
				}
			],
			"stateMutability": "view",
			"type": "function"
		},
		{
			"inputs": [],
			"name": "b3",
			"outputs": [
				{
					"internalType": "bytes",
					"name": "",
					"type": "bytes"
				}
			],
			"stateMutability": "view",
			"type": "function"
		},
		{
			"inputs": [],
			"name": "setBytes",
			"outputs": [],
			"stateMutability": "nonpayable",
			"type": "function"
		}
	]
}