{
	"data": {
		"bytecode": {
			"linkReferences": {},
			"object": "608060405260286000556038600155603c60025534801561001f57600080fd5b5061010e8061002f6000396000f3fe6080604052348015600f57600080fd5b5060043610603c5760003560e01c80630e989a38146041578063967e6e6514605b578063a20f8c11146075575b600080fd5b6047608f565b6040516052919060b5565b60405180910390f35b60616095565b604051606c919060b5565b60405180910390f35b607b609e565b6040516086919060b5565b60405180910390f35b60015481565b60008054905090565b6000600254905090565b60af8160ce565b82525050565b600060208201905060c8600083018460a8565b92915050565b600081905091905056fea264697066735822122089d81eb5e7326338154845919df9d5fe94dd5b59afbce9e99a2b250a8ae0e34964736f6c63430008070033",
			"opcodes": "PUSH1 0x80 PUSH1 0x40 MSTORE PUSH1 0x28 PUSH1 0x0 SSTORE PUSH1 0x38 PUSH1 0x1 SSTORE PUSH1 0x3C PUSH1 0x2 SSTORE CALLVALUE DUP1 ISZERO PUSH2 0x1F JUMPI PUSH1 0x0 DUP1 REVERT JUMPDEST POP PUSH2 0x10E DUP1 PUSH2 0x2F PUSH1 0x0 CODECOPY PUSH1 0x0 RETURN INVALID PUSH1 0x80 PUSH1 0x40 MSTORE CALLVALUE DUP1 ISZERO PUSH1 0xF JUMPI PUSH1 0x0 DUP1 REVERT JUMPDEST POP PUSH1 0x4 CALLDATASIZE LT PUSH1 0x3C JUMPI PUSH1 0x0 CALLDATALOAD PUSH1 0xE0 SHR DUP1 PUSH4 0xE989A38 EQ PUSH1 0x41 JUMPI DUP1 PUSH4 0x967E6E65 EQ PUSH1 0x5B JUMPI DUP1 PUSH4 0xA20F8C11 EQ PUSH1 0x75 JUMPI JUMPDEST PUSH1 0x0 DUP1 REVERT JUMPDEST PUSH1 0x47 PUSH1 0x8F JUMP JUMPDEST PUSH1 0x40 MLOAD PUSH1 0x52 SWAP2 SWAP1 PUSH1 0xB5 JUMP JUMPDEST PUSH1 0x40 MLOAD DUP1 SWAP2 SUB SWAP1 RETURN JUMPDEST PUSH1 0x61 PUSH1 0x95 JUMP JUMPDEST PUSH1 0x40 MLOAD PUSH1 0x6C SWAP2 SWAP1 PUSH1 0xB5 JUMP JUMPDEST PUSH1 0x40 MLOAD DUP1 SWAP2 SUB SWAP1 RETURN JUMPDEST PUSH1 0x7B PUSH1 0x9E JUMP JUMPDEST PUSH1 0x40 MLOAD PUSH1 0x86 SWAP2 SWAP1 PUSH1 0xB5 JUMP JUMPDEST PUSH1 0x40 MLOAD DUP1 SWAP2 SUB SWAP1 RETURN JUMPDEST PUSH1 0x1 SLOAD DUP2 JUMP JUMPDEST PUSH1 0x0 DUP1 SLOAD SWAP1 POP SWAP1 JUMP JUMPDEST PUSH1 0x0 PUSH1 0x2 SLOAD SWAP1 POP SWAP1 JUMP JUMPDEST PUSH1 0xAF DUP2 PUSH1 0xCE JUMP JUMPDEST DUP3 MSTORE POP POP JUMP JUMPDEST PUSH1 0x0 PUSH1 0x20 DUP3 ADD SWAP1 POP PUSH1 0xC8 PUSH1 0x0 DUP4 ADD DUP5 PUSH1 0xA8 JUMP JUMPDEST SWAP3 SWAP2 POP POP JUMP JUMPDEST PUSH1 0x0 DUP2 SWAP1 POP SWAP2 SWAP1 POP JUMP INVALID LOG2 PUSH5 0x6970667358 0x22 SLT KECCAK256 DUP10 0xD8 0x1E 0xB5 0xE7 ORIGIN PUSH4 0x38154845 SWAP2 SWAP14 0xF9 0xD5 INVALID SWAP5 0xDD JUMPDEST MSIZE 0xAF 0xBC 0xE9 0xE9 SWAP11 0x2B 0x25 EXP DUP11 0xE0 0xE3 0x49 PUSH5 0x736F6C6343 STOP ADDMOD SMOD STOP CALLER "
		},
		"gasEstimates": {
			"creation": {
				"codeDepositCost": "54000",
				"executionCost": "66423",
				"totalCost": "120423"
			},
			"external": {
				"age2()": "2407",
				"getAge()": "2437",
				"getAgeNew()": "2459"
			}
		},
		"methodIdentifiers": {
			"age2()": "0e989a38",
			"getAge()": "967e6e65",
			"getAgeNew()": "a20f8c11"
		}
	},
	"abi": [
		{
			"inputs": [],
			"name": "age2",
			"outputs": [
				{
					"internalType": "int256",
					"name": "",
					"type": "int256"
				}
			],
			"stateMutability": "view",
			"type": "function"
		},
		{
			"inputs": [],
			"name": "getAge",
			"outputs": [
				{
					"internalType": "int256",
					"name": "",
					"type": "int256"
				}
			],
			"stateMutability": "view",
			"type": "function"
		},
		{
			"inputs": [],
			"name": "getAgeNew",
			"outputs": [
				{
					"internalType": "int256",
					"name": "",
					"type": "int256"
				}
			],
			"stateMutability": "view",
			"type": "function"
		}
	]
}