{
	"firstApp/firstApp.sol": {
		"counter": {
			"abi": [
				{
					"inputs": [],
					"name": "count",
					"outputs": [
						{
							"internalType": "uint256",
							"name": "",
							"type": "uint256"
						}
					],
					"stateMutability": "view",
					"type": "function"
				},
				{
					"inputs": [],
					"name": "dec",
					"outputs": [],
					"stateMutability": "nonpayable",
					"type": "function"
				},
				{
					"inputs": [],
					"name": "get",
					"outputs": [
						{
							"internalType": "uint256",
							"name": "",
							"type": "uint256"
						}
					],
					"stateMutability": "view",
					"type": "function"
				},
				{
					"inputs": [],
					"name": "inc",
					"outputs": [],
					"stateMutability": "nonpayable",
					"type": "function"
				}
			],
			"devdoc": {
				"kind": "dev",
				"methods": {},
				"version": 1
			},
			"evm": {
				"assembly": "    /* \"firstApp/firstApp.sol\":141:371  contract counter{\r... */\n  mstore(0x40, 0x80)\n  callvalue\n  dup1\n  iszero\n  tag_1\n  jumpi\n  0x00\n  dup1\n  revert\ntag_1:\n  pop\n  dataSize(sub_0)\n  dup1\n  dataOffset(sub_0)\n  0x00\n  codecopy\n  0x00\n  return\nstop\n\nsub_0: assembly {\n        /* \"firstApp/firstApp.sol\":141:371  contract counter{\r... */\n      mstore(0x40, 0x80)\n      callvalue\n      dup1\n      iszero\n      tag_1\n      jumpi\n      0x00\n      dup1\n      revert\n    tag_1:\n      pop\n      jumpi(tag_2, lt(calldatasize, 0x04))\n      shr(0xe0, calldataload(0x00))\n      dup1\n      0x06661abd\n      eq\n      tag_3\n      jumpi\n      dup1\n      0x371303c0\n      eq\n      tag_4\n      jumpi\n      dup1\n      0x6d4ce63c\n      eq\n      tag_5\n      jumpi\n      dup1\n      0xb3bcfa82\n      eq\n      tag_6\n      jumpi\n    tag_2:\n      0x00\n      dup1\n      revert\n        /* \"firstApp/firstApp.sol\":164:181  uint public count */\n    tag_3:\n      tag_7\n      tag_8\n      jump\t// in\n    tag_7:\n      mload(0x40)\n      tag_9\n      swap2\n      swap1\n      tag_10\n      jump\t// in\n    tag_9:\n      mload(0x40)\n      dup1\n      swap2\n      sub\n      swap1\n      return\n        /* \"firstApp/firstApp.sol\":267:315  function inc() public {\r... */\n    tag_4:\n      tag_11\n      tag_12\n      jump\t// in\n    tag_11:\n      stop\n        /* \"firstApp/firstApp.sol\":190:261  function get() public view returns(uint){\r... */\n    tag_5:\n      tag_13\n      tag_14\n      jump\t// in\n    tag_13:\n      mload(0x40)\n      tag_15\n      swap2\n      swap1\n      tag_10\n      jump\t// in\n    tag_15:\n      mload(0x40)\n      dup1\n      swap2\n      sub\n      swap1\n      return\n        /* \"firstApp/firstApp.sol\":321:368  function dec() public{\r... */\n    tag_6:\n      tag_16\n      tag_17\n      jump\t// in\n    tag_16:\n      stop\n        /* \"firstApp/firstApp.sol\":164:181  uint public count */\n    tag_8:\n      sload(0x00)\n      dup2\n      jump\t// out\n        /* \"firstApp/firstApp.sol\":267:315  function inc() public {\r... */\n    tag_12:\n        /* \"firstApp/firstApp.sol\":300:305  count */\n      0x00\n      dup1\n        /* \"firstApp/firstApp.sol\":300:307  count++ */\n      dup2\n      sload\n      dup1\n      swap3\n      swap2\n      swap1\n      tag_19\n      swap1\n      tag_20\n      jump\t// in\n    tag_19:\n      swap2\n      swap1\n      pop\n      sstore\n      pop\n        /* \"firstApp/firstApp.sol\":267:315  function inc() public {\r... */\n      jump\t// out\n        /* \"firstApp/firstApp.sol\":190:261  function get() public view returns(uint){\r... */\n    tag_14:\n        /* \"firstApp/firstApp.sol\":225:229  uint */\n      0x00\n        /* \"firstApp/firstApp.sol\":248:253  count */\n      dup1\n      sload\n        /* \"firstApp/firstApp.sol\":241:253  return count */\n      swap1\n      pop\n        /* \"firstApp/firstApp.sol\":190:261  function get() public view returns(uint){\r... */\n      swap1\n      jump\t// out\n        /* \"firstApp/firstApp.sol\":321:368  function dec() public{\r... */\n    tag_17:\n        /* \"firstApp/firstApp.sol\":353:358  count */\n      0x00\n      dup1\n        /* \"firstApp/firstApp.sol\":353:360  count-- */\n      dup2\n      sload\n      dup1\n      swap3\n      swap2\n      swap1\n      tag_23\n      swap1\n      tag_24\n      jump\t// in\n    tag_23:\n      swap2\n      swap1\n      pop\n      sstore\n      pop\n        /* \"firstApp/firstApp.sol\":321:368  function dec() public{\r... */\n      jump\t// out\n        /* \"#utility.yul\":7:125   */\n    tag_26:\n        /* \"#utility.yul\":94:118   */\n      tag_28\n        /* \"#utility.yul\":112:117   */\n      dup2\n        /* \"#utility.yul\":94:118   */\n      tag_29\n      jump\t// in\n    tag_28:\n        /* \"#utility.yul\":89:92   */\n      dup3\n        /* \"#utility.yul\":82:119   */\n      mstore\n        /* \"#utility.yul\":7:125   */\n      pop\n      pop\n      jump\t// out\n        /* \"#utility.yul\":131:353   */\n    tag_10:\n        /* \"#utility.yul\":224:228   */\n      0x00\n        /* \"#utility.yul\":262:264   */\n      0x20\n        /* \"#utility.yul\":251:260   */\n      dup3\n        /* \"#utility.yul\":247:265   */\n      add\n        /* \"#utility.yul\":239:265   */\n      swap1\n      pop\n        /* \"#utility.yul\":275:346   */\n      tag_31\n        /* \"#utility.yul\":343:344   */\n      0x00\n        /* \"#utility.yul\":332:341   */\n      dup4\n        /* \"#utility.yul\":328:345   */\n      add\n        /* \"#utility.yul\":319:325   */\n      dup5\n        /* \"#utility.yul\":275:346   */\n      tag_26\n      jump\t// in\n    tag_31:\n        /* \"#utility.yul\":131:353   */\n      swap3\n      swap2\n      pop\n      pop\n      jump\t// out\n        /* \"#utility.yul\":359:436   */\n    tag_29:\n        /* \"#utility.yul\":396:403   */\n      0x00\n        /* \"#utility.yul\":425:430   */\n      dup2\n        /* \"#utility.yul\":414:430   */\n      swap1\n      pop\n        /* \"#utility.yul\":359:436   */\n      swap2\n      swap1\n      pop\n      jump\t// out\n        /* \"#utility.yul\":442:613   */\n    tag_24:\n        /* \"#utility.yul\":481:484   */\n      0x00\n        /* \"#utility.yul\":504:528   */\n      tag_34\n        /* \"#utility.yul\":522:527   */\n      dup3\n        /* \"#utility.yul\":504:528   */\n      tag_29\n      jump\t// in\n    tag_34:\n        /* \"#utility.yul\":495:528   */\n      swap2\n      pop\n        /* \"#utility.yul\":550:554   */\n      0x00\n        /* \"#utility.yul\":543:548   */\n      dup3\n        /* \"#utility.yul\":540:555   */\n      eq\n        /* \"#utility.yul\":537:578   */\n      iszero\n      tag_35\n      jumpi\n        /* \"#utility.yul\":558:576   */\n      tag_36\n      tag_37\n      jump\t// in\n    tag_36:\n        /* \"#utility.yul\":537:578   */\n    tag_35:\n        /* \"#utility.yul\":605:606   */\n      0x01\n        /* \"#utility.yul\":598:603   */\n      dup3\n        /* \"#utility.yul\":594:607   */\n      sub\n        /* \"#utility.yul\":587:607   */\n      swap1\n      pop\n        /* \"#utility.yul\":442:613   */\n      swap2\n      swap1\n      pop\n      jump\t// out\n        /* \"#utility.yul\":619:852   */\n    tag_20:\n        /* \"#utility.yul\":658:661   */\n      0x00\n        /* \"#utility.yul\":681:705   */\n      tag_39\n        /* \"#utility.yul\":699:704   */\n      dup3\n        /* \"#utility.yul\":681:705   */\n      tag_29\n      jump\t// in\n    tag_39:\n        /* \"#utility.yul\":672:705   */\n      swap2\n      pop\n        /* \"#utility.yul\":727:793   */\n      0xffffffffffffffffffffffffffffffffffffffffffffffffffffffffffffffff\n        /* \"#utility.yul\":720:725   */\n      dup3\n        /* \"#utility.yul\":717:794   */\n      eq\n        /* \"#utility.yul\":714:817   */\n      iszero\n      tag_40\n      jumpi\n        /* \"#utility.yul\":797:815   */\n      tag_41\n      tag_37\n      jump\t// in\n    tag_41:\n        /* \"#utility.yul\":714:817   */\n    tag_40:\n        /* \"#utility.yul\":844:845   */\n      0x01\n        /* \"#utility.yul\":837:842   */\n      dup3\n        /* \"#utility.yul\":833:846   */\n      add\n        /* \"#utility.yul\":826:846   */\n      swap1\n      pop\n        /* \"#utility.yul\":619:852   */\n      swap2\n      swap1\n      pop\n      jump\t// out\n        /* \"#utility.yul\":858:1038   */\n    tag_37:\n        /* \"#utility.yul\":906:983   */\n      0x4e487b7100000000000000000000000000000000000000000000000000000000\n        /* \"#utility.yul\":903:904   */\n      0x00\n        /* \"#utility.yul\":896:984   */\n      mstore\n        /* \"#utility.yul\":1003:1007   */\n      0x11\n        /* \"#utility.yul\":1000:1001   */\n      0x04\n        /* \"#utility.yul\":993:1008   */\n      mstore\n        /* \"#utility.yul\":1027:1031   */\n      0x24\n        /* \"#utility.yul\":1024:1025   */\n      0x00\n        /* \"#utility.yul\":1017:1032   */\n      revert\n\n    auxdata: 0xa2646970667358221220dfb1344c07ad5cff53a75cb57793646c40704547ed298d4e942dfa09aad8b58a64736f6c63430008070033\n}\n",
				"bytecode": {
					"linkReferences": {},
					"object": "608060405234801561001057600080fd5b506101ee806100206000396000f3fe608060405234801561001057600080fd5b506004361061004c5760003560e01c806306661abd14610051578063371303c01461006f5780636d4ce63c14610079578063b3bcfa8214610097575b600080fd5b6100596100a1565b60405161006691906100f1565b60405180910390f35b6100776100a7565b005b6100816100c0565b60405161008e91906100f1565b60405180910390f35b61009f6100c9565b005b60005481565b6000808154809291906100b990610140565b9190505550565b60008054905090565b6000808154809291906100db90610116565b9190505550565b6100eb8161010c565b82525050565b600060208201905061010660008301846100e2565b92915050565b6000819050919050565b60006101218261010c565b9150600082141561013557610134610189565b5b600182039050919050565b600061014b8261010c565b91507fffffffffffffffffffffffffffffffffffffffffffffffffffffffffffffffff82141561017e5761017d610189565b5b600182019050919050565b7f4e487b7100000000000000000000000000000000000000000000000000000000600052601160045260246000fdfea2646970667358221220dfb1344c07ad5cff53a75cb57793646c40704547ed298d4e942dfa09aad8b58a64736f6c63430008070033",
					"opcodes": "PUSH1 0x80 PUSH1 0x40 MSTORE CALLVALUE DUP1 ISZERO PUSH2 0x10 JUMPI PUSH1 0x0 DUP1 REVERT JUMPDEST POP PUSH2 0x1EE DUP1 PUSH2 0x20 PUSH1 0x0 CODECOPY PUSH1 0x0 RETURN INVALID PUSH1 0x80 PUSH1 0x40 MSTORE CALLVALUE DUP1 ISZERO PUSH2 0x10 JUMPI PUSH1 0x0 DUP1 REVERT JUMPDEST POP PUSH1 0x4 CALLDATASIZE LT PUSH2 0x4C JUMPI PUSH1 0x0 CALLDATALOAD PUSH1 0xE0 SHR DUP1 PUSH4 0x6661ABD EQ PUSH2 0x51 JUMPI DUP1 PUSH4 0x371303C0 EQ PUSH2 0x6F JUMPI DUP1 PUSH4 0x6D4CE63C EQ PUSH2 0x79 JUMPI DUP1 PUSH4 0xB3BCFA82 EQ PUSH2 0x97 JUMPI JUMPDEST PUSH1 0x0 DUP1 REVERT JUMPDEST PUSH2 0x59 PUSH2 0xA1 JUMP JUMPDEST PUSH1 0x40 MLOAD PUSH2 0x66 SWAP2 SWAP1 PUSH2 0xF1 JUMP JUMPDEST PUSH1 0x40 MLOAD DUP1 SWAP2 SUB SWAP1 RETURN JUMPDEST PUSH2 0x77 PUSH2 0xA7 JUMP JUMPDEST STOP JUMPDEST PUSH2 0x81 PUSH2 0xC0 JUMP JUMPDEST PUSH1 0x40 MLOAD PUSH2 0x8E SWAP2 SWAP1 PUSH2 0xF1 JUMP JUMPDEST PUSH1 0x40 MLOAD DUP1 SWAP2 SUB SWAP1 RETURN JUMPDEST PUSH2 0x9F PUSH2 0xC9 JUMP JUMPDEST STOP JUMPDEST PUSH1 0x0 SLOAD DUP2 JUMP JUMPDEST PUSH1 0x0 DUP1 DUP2 SLOAD DUP1 SWAP3 SWAP2 SWAP1 PUSH2 0xB9 SWAP1 PUSH2 0x140 JUMP JUMPDEST SWAP2 SWAP1 POP SSTORE POP JUMP JUMPDEST PUSH1 0x0 DUP1 SLOAD SWAP1 POP SWAP1 JUMP JUMPDEST PUSH1 0x0 DUP1 DUP2 SLOAD DUP1 SWAP3 SWAP2 SWAP1 PUSH2 0xDB SWAP1 PUSH2 0x116 JUMP JUMPDEST SWAP2 SWAP1 POP SSTORE POP JUMP JUMPDEST PUSH2 0xEB DUP2 PUSH2 0x10C JUMP JUMPDEST DUP3 MSTORE POP POP JUMP JUMPDEST PUSH1 0x0 PUSH1 0x20 DUP3 ADD SWAP1 POP PUSH2 0x106 PUSH1 0x0 DUP4 ADD DUP5 PUSH2 0xE2 JUMP JUMPDEST SWAP3 SWAP2 POP POP JUMP JUMPDEST PUSH1 0x0 DUP2 SWAP1 POP SWAP2 SWAP1 POP JUMP JUMPDEST PUSH1 0x0 PUSH2 0x121 DUP3 PUSH2 0x10C JUMP JUMPDEST SWAP2 POP PUSH1 0x0 DUP3 EQ ISZERO PUSH2 0x135 JUMPI PUSH2 0x134 PUSH2 0x189 JUMP JUMPDEST JUMPDEST PUSH1 0x1 DUP3 SUB SWAP1 POP SWAP2 SWAP1 POP JUMP JUMPDEST PUSH1 0x0 PUSH2 0x14B DUP3 PUSH2 0x10C JUMP JUMPDEST SWAP2 POP PUSH32 0xFFFFFFFFFFFFFFFFFFFFFFFFFFFFFFFFFFFFFFFFFFFFFFFFFFFFFFFFFFFFFFFF DUP3 EQ ISZERO PUSH2 0x17E JUMPI PUSH2 0x17D PUSH2 0x189 JUMP JUMPDEST JUMPDEST PUSH1 0x1 DUP3 ADD SWAP1 POP SWAP2 SWAP1 POP JUMP JUMPDEST PUSH32 0x4E487B7100000000000000000000000000000000000000000000000000000000 PUSH1 0x0 MSTORE PUSH1 0x11 PUSH1 0x4 MSTORE PUSH1 0x24 PUSH1 0x0 REVERT INVALID LOG2 PUSH5 0x6970667358 0x22 SLT KECCAK256 0xDF 0xB1 CALLVALUE 0x4C SMOD 0xAD 0x5C SELFDESTRUCT MSTORE8 0xA7 0x5C 0xB5 PUSH24 0x93646C40704547ED298D4E942DFA09AAD8B58A64736F6C63 NUMBER STOP ADDMOD SMOD STOP CALLER "
				},
				"gasEstimates": {
					"creation": {
						"codeDepositCost": "98800",
						"executionCost": "147",
						"totalCost": "98947"
					},
					"external": {
						"count()": "2407",
						"dec()": "24548",
						"get()": "2459",
						"inc()": "24504"
					}
				},
				"methodIdentifiers": {
					"count()": "06661abd",
					"dec()": "b3bcfa82",
					"get()": "6d4ce63c",
					"inc()": "371303c0"
				}
			},
			"storageLayout": {
				"storage": [
					{
						"astId": 3,
						"contract": "firstApp/firstApp.sol:counter",
						"label": "count",
						"offset": 0,
						"slot": "0",
						"type": "t_uint256"
					}
				],
				"types": {
					"t_uint256": {
						"encoding": "inplace",
						"label": "uint256",
						"numberOfBytes": "32"
					}
				}
			},
			"userdoc": {
				"kind": "user",
				"methods": {},
				"version": 1
			}
		}
	}
}