{
	"data": {
		"bytecode": {
			"linkReferences": {},
			"object": "6080604052603860005534801561001557600080fd5b5060d1806100246000396000f3fe6080604052348015600f57600080fd5b506004361060325760003560e01c80635521eb05146037578063967e6e6514603f575b600080fd5b603d6059565b005b6045605b565b604051605091906078565b60405180910390f35b565b600060636059565b600054905090565b6072816091565b82525050565b6000602082019050608b6000830184606b565b92915050565b600081905091905056fea264697066735822122091b8a331aed888f1d2c50efbcbbbf194ecd17fff8e72d21c666e980e6dc9071164736f6c63430008070033",
			"opcodes": "PUSH1 0x80 PUSH1 0x40 MSTORE PUSH1 0x38 PUSH1 0x0 SSTORE CALLVALUE DUP1 ISZERO PUSH2 0x15 JUMPI PUSH1 0x0 DUP1 REVERT JUMPDEST POP PUSH1 0xD1 DUP1 PUSH2 0x24 PUSH1 0x0 CODECOPY PUSH1 0x0 RETURN INVALID PUSH1 0x80 PUSH1 0x40 MSTORE CALLVALUE DUP1 ISZERO PUSH1 0xF JUMPI PUSH1 0x0 DUP1 REVERT JUMPDEST POP PUSH1 0x4 CALLDATASIZE LT PUSH1 0x32 JUMPI PUSH1 0x0 CALLDATALOAD PUSH1 0xE0 SHR DUP1 PUSH4 0x5521EB05 EQ PUSH1 0x37 JUMPI DUP1 PUSH4 0x967E6E65 EQ PUSH1 0x3F JUMPI JUMPDEST PUSH1 0x0 DUP1 REVERT JUMPDEST PUSH1 0x3D PUSH1 0x59 JUMP JUMPDEST STOP JUMPDEST PUSH1 0x45 PUSH1 0x5B JUMP JUMPDEST PUSH1 0x40 MLOAD PUSH1 0x50 SWAP2 SWAP1 PUSH1 0x78 JUMP JUMPDEST PUSH1 0x40 MLOAD DUP1 SWAP2 SUB SWAP1 RETURN JUMPDEST JUMP JUMPDEST PUSH1 0x0 PUSH1 0x63 PUSH1 0x59 JUMP JUMPDEST PUSH1 0x0 SLOAD SWAP1 POP SWAP1 JUMP JUMPDEST PUSH1 0x72 DUP2 PUSH1 0x91 JUMP JUMPDEST DUP3 MSTORE POP POP JUMP JUMPDEST PUSH1 0x0 PUSH1 0x20 DUP3 ADD SWAP1 POP PUSH1 0x8B PUSH1 0x0 DUP4 ADD DUP5 PUSH1 0x6B JUMP JUMPDEST SWAP3 SWAP2 POP POP JUMP JUMPDEST PUSH1 0x0 DUP2 SWAP1 POP SWAP2 SWAP1 POP JUMP INVALID LOG2 PUSH5 0x6970667358 0x22 SLT KECCAK256 SWAP2 0xB8 LOG3 BALANCE 0xAE 0xD8 DUP9 CALL 0xD2 0xC5 0xE 0xFB 0xCB 0xBB CALL SWAP5 0xEC 0xD1 PUSH32 0xFF8E72D21C666E980E6DC9071164736F6C634300080700330000000000000000 "
		},
		"gasEstimates": {
			"creation": {
				"codeDepositCost": "41800",
				"executionCost": "22199",
				"totalCost": "63999"
			},
			"external": {
				"doSOmeWork()": "122",
				"getAge()": "2461"
			}
		},
		"methodIdentifiers": {
			"doSOmeWork()": "5521eb05",
			"getAge()": "967e6e65"
		}
	},
	"abi": [
		{
			"inputs": [],
			"name": "doSOmeWork",
			"outputs": [],
			"stateMutability": "view",
			"type": "function"
		},
		{
			"inputs": [],
			"name": "getAge",
			"outputs": [
				{
					"internalType": "uint256",
					"name": "",
					"type": "uint256"
				}
			],
			"stateMutability": "view",
			"type": "function"
		}
	]
}