{
	"demoTask5/demo5.sol": {
		"First": {
			"abi": [
				{
					"inputs": [],
					"name": "age2",
					"outputs": [
						{
							"internalType": "int256",
							"name": "",
							"type": "int256"
						}
					],
					"stateMutability": "view",
					"type": "function"
				},
				{
					"inputs": [],
					"name": "getAge",
					"outputs": [
						{
							"internalType": "int256",
							"name": "",
							"type": "int256"
						}
					],
					"stateMutability": "view",
					"type": "function"
				},
				{
					"inputs": [],
					"name": "getAgeNew",
					"outputs": [
						{
							"internalType": "int256",
							"name": "",
							"type": "int256"
						}
					],
					"stateMutability": "pure",
					"type": "function"
				},
				{
					"inputs": [],
					"name": "updateAge",
					"outputs": [],
					"stateMutability": "nonpayable",
					"type": "function"
				}
			],
			"devdoc": {
				"kind": "dev",
				"methods": {},
				"version": 1
			},
			"evm": {
				"assembly": "    /* \"demoTask5/demo5.sol\":71:397  contract First{\r... */\n  mstore(0x40, 0x80)\n    /* \"demoTask5/demo5.sol\":132:134  56 */\n  0x38\n    /* \"demoTask5/demo5.sol\":115:134  int public age2 =56 */\n  0x01\n  sstore\n    /* \"demoTask5/demo5.sol\":71:397  contract First{\r... */\n  callvalue\n  dup1\n  iszero\n  tag_1\n  jumpi\n  0x00\n  dup1\n  revert\ntag_1:\n  pop\n  dataSize(sub_0)\n  dup1\n  dataOffset(sub_0)\n  0x00\n  codecopy\n  0x00\n  return\nstop\n\nsub_0: assembly {\n        /* \"demoTask5/demo5.sol\":71:397  contract First{\r... */\n      mstore(0x40, 0x80)\n      callvalue\n      dup1\n      iszero\n      tag_1\n      jumpi\n      0x00\n      dup1\n      revert\n    tag_1:\n      pop\n      jumpi(tag_2, lt(calldatasize, 0x04))\n      shr(0xe0, calldataload(0x00))\n      dup1\n      0x0e989a38\n      eq\n      tag_3\n      jumpi\n      dup1\n      0x967e6e65\n      eq\n      tag_4\n      jumpi\n      dup1\n      0xa20f8c11\n      eq\n      tag_5\n      jumpi\n      dup1\n      0xecdb71bf\n      eq\n      tag_6\n      jumpi\n    tag_2:\n      0x00\n      dup1\n      revert\n        /* \"demoTask5/demo5.sol\":115:134  int public age2 =56 */\n    tag_3:\n      tag_7\n      tag_8\n      jump\t// in\n    tag_7:\n      mload(0x40)\n      tag_9\n      swap2\n      swap1\n      tag_10\n      jump\t// in\n    tag_9:\n      mload(0x40)\n      dup1\n      swap2\n      sub\n      swap1\n      return\n        /* \"demoTask5/demo5.sol\":240:312  function getAge() public view returns (int){\r... */\n    tag_4:\n      tag_11\n      tag_12\n      jump\t// in\n    tag_11:\n      mload(0x40)\n      tag_13\n      swap2\n      swap1\n      tag_10\n      jump\t// in\n    tag_13:\n      mload(0x40)\n      dup1\n      swap2\n      sub\n      swap1\n      return\n        /* \"demoTask5/demo5.sol\":318:394  function getAgeNew() public pure returns (int){\r... */\n    tag_5:\n      tag_14\n      tag_15\n      jump\t// in\n    tag_14:\n      mload(0x40)\n      tag_16\n      swap2\n      swap1\n      tag_10\n      jump\t// in\n    tag_16:\n      mload(0x40)\n      dup1\n      swap2\n      sub\n      swap1\n      return\n        /* \"demoTask5/demo5.sol\":180:234  function updateAge() public{\r... */\n    tag_6:\n      tag_17\n      tag_18\n      jump\t// in\n    tag_17:\n      stop\n        /* \"demoTask5/demo5.sol\":115:134  int public age2 =56 */\n    tag_8:\n      sload(0x01)\n      dup2\n      jump\t// out\n        /* \"demoTask5/demo5.sol\":240:312  function getAge() public view returns (int){\r... */\n    tag_12:\n        /* \"demoTask5/demo5.sol\":279:282  int */\n      0x00\n        /* \"demoTask5/demo5.sol\":301:304  age */\n      dup1\n      sload\n        /* \"demoTask5/demo5.sol\":294:304  return age */\n      swap1\n      pop\n        /* \"demoTask5/demo5.sol\":240:312  function getAge() public view returns (int){\r... */\n      swap1\n      jump\t// out\n        /* \"demoTask5/demo5.sol\":318:394  function getAgeNew() public pure returns (int){\r... */\n    tag_15:\n        /* \"demoTask5/demo5.sol\":360:363  int */\n      0x00\n        /* \"demoTask5/demo5.sol\":169:171  60 */\n      0x3c\n        /* \"demoTask5/demo5.sol\":375:386  return age3 */\n      swap1\n      pop\n        /* \"demoTask5/demo5.sol\":318:394  function getAgeNew() public pure returns (int){\r... */\n      swap1\n      jump\t// out\n        /* \"demoTask5/demo5.sol\":180:234  function updateAge() public{\r... */\n    tag_18:\n        /* \"demoTask5/demo5.sol\":224:226  12 */\n      0x0c\n        /* \"demoTask5/demo5.sol\":218:221  age */\n      0x00\n        /* \"demoTask5/demo5.sol\":218:226  age = 12 */\n      dup2\n      swap1\n      sstore\n      pop\n        /* \"demoTask5/demo5.sol\":180:234  function updateAge() public{\r... */\n      jump\t// out\n        /* \"#utility.yul\":7:122   */\n    tag_23:\n        /* \"#utility.yul\":92:115   */\n      tag_25\n        /* \"#utility.yul\":109:114   */\n      dup2\n        /* \"#utility.yul\":92:115   */\n      tag_26\n      jump\t// in\n    tag_25:\n        /* \"#utility.yul\":87:90   */\n      dup3\n        /* \"#utility.yul\":80:116   */\n      mstore\n        /* \"#utility.yul\":7:122   */\n      pop\n      pop\n      jump\t// out\n        /* \"#utility.yul\":128:346   */\n    tag_10:\n        /* \"#utility.yul\":219:223   */\n      0x00\n        /* \"#utility.yul\":257:259   */\n      0x20\n        /* \"#utility.yul\":246:255   */\n      dup3\n        /* \"#utility.yul\":242:260   */\n      add\n        /* \"#utility.yul\":234:260   */\n      swap1\n      pop\n        /* \"#utility.yul\":270:339   */\n      tag_28\n        /* \"#utility.yul\":336:337   */\n      0x00\n        /* \"#utility.yul\":325:334   */\n      dup4\n        /* \"#utility.yul\":321:338   */\n      add\n        /* \"#utility.yul\":312:318   */\n      dup5\n        /* \"#utility.yul\":270:339   */\n      tag_23\n      jump\t// in\n    tag_28:\n        /* \"#utility.yul\":128:346   */\n      swap3\n      swap2\n      pop\n      pop\n      jump\t// out\n        /* \"#utility.yul\":352:428   */\n    tag_26:\n        /* \"#utility.yul\":388:395   */\n      0x00\n        /* \"#utility.yul\":417:422   */\n      dup2\n        /* \"#utility.yul\":406:422   */\n      swap1\n      pop\n        /* \"#utility.yul\":352:428   */\n      swap2\n      swap1\n      pop\n      jump\t// out\n\n    auxdata: 0xa264697066735822122026116f64c69c0c632540043211fe358a25d862b43118a093f2d3149de137054564736f6c63430008070033\n}\n",
				"bytecode": {
					"linkReferences": {},
					"object": "6080604052603860015534801561001557600080fd5b50610129806100256000396000f3fe6080604052348015600f57600080fd5b506004361060465760003560e01c80630e989a3814604b578063967e6e65146065578063a20f8c1114607f578063ecdb71bf146099575b600080fd5b605160a1565b604051605c919060d0565b60405180910390f35b606b60a7565b6040516076919060d0565b60405180910390f35b608560b0565b6040516090919060d0565b60405180910390f35b609f60b9565b005b60015481565b60008054905090565b6000603c905090565b600c600081905550565b60ca8160e9565b82525050565b600060208201905060e3600083018460c3565b92915050565b600081905091905056fea264697066735822122026116f64c69c0c632540043211fe358a25d862b43118a093f2d3149de137054564736f6c63430008070033",
					"opcodes": "PUSH1 0x80 PUSH1 0x40 MSTORE PUSH1 0x38 PUSH1 0x1 SSTORE CALLVALUE DUP1 ISZERO PUSH2 0x15 JUMPI PUSH1 0x0 DUP1 REVERT JUMPDEST POP PUSH2 0x129 DUP1 PUSH2 0x25 PUSH1 0x0 CODECOPY PUSH1 0x0 RETURN INVALID PUSH1 0x80 PUSH1 0x40 MSTORE CALLVALUE DUP1 ISZERO PUSH1 0xF JUMPI PUSH1 0x0 DUP1 REVERT JUMPDEST POP PUSH1 0x4 CALLDATASIZE LT PUSH1 0x46 JUMPI PUSH1 0x0 CALLDATALOAD PUSH1 0xE0 SHR DUP1 PUSH4 0xE989A38 EQ PUSH1 0x4B JUMPI DUP1 PUSH4 0x967E6E65 EQ PUSH1 0x65 JUMPI DUP1 PUSH4 0xA20F8C11 EQ PUSH1 0x7F JUMPI DUP1 PUSH4 0xECDB71BF EQ PUSH1 0x99 JUMPI JUMPDEST PUSH1 0x0 DUP1 REVERT JUMPDEST PUSH1 0x51 PUSH1 0xA1 JUMP JUMPDEST PUSH1 0x40 MLOAD PUSH1 0x5C SWAP2 SWAP1 PUSH1 0xD0 JUMP JUMPDEST PUSH1 0x40 MLOAD DUP1 SWAP2 SUB SWAP1 RETURN JUMPDEST PUSH1 0x6B PUSH1 0xA7 JUMP JUMPDEST PUSH1 0x40 MLOAD PUSH1 0x76 SWAP2 SWAP1 PUSH1 0xD0 JUMP JUMPDEST PUSH1 0x40 MLOAD DUP1 SWAP2 SUB SWAP1 RETURN JUMPDEST PUSH1 0x85 PUSH1 0xB0 JUMP JUMPDEST PUSH1 0x40 MLOAD PUSH1 0x90 SWAP2 SWAP1 PUSH1 0xD0 JUMP JUMPDEST PUSH1 0x40 MLOAD DUP1 SWAP2 SUB SWAP1 RETURN JUMPDEST PUSH1 0x9F PUSH1 0xB9 JUMP JUMPDEST STOP JUMPDEST PUSH1 0x1 SLOAD DUP2 JUMP JUMPDEST PUSH1 0x0 DUP1 SLOAD SWAP1 POP SWAP1 JUMP JUMPDEST PUSH1 0x0 PUSH1 0x3C SWAP1 POP SWAP1 JUMP JUMPDEST PUSH1 0xC PUSH1 0x0 DUP2 SWAP1 SSTORE POP JUMP JUMPDEST PUSH1 0xCA DUP2 PUSH1 0xE9 JUMP JUMPDEST DUP3 MSTORE POP POP JUMP JUMPDEST PUSH1 0x0 PUSH1 0x20 DUP3 ADD SWAP1 POP PUSH1 0xE3 PUSH1 0x0 DUP4 ADD DUP5 PUSH1 0xC3 JUMP JUMPDEST SWAP3 SWAP2 POP POP JUMP JUMPDEST PUSH1 0x0 DUP2 SWAP1 POP SWAP2 SWAP1 POP JUMP INVALID LOG2 PUSH5 0x6970667358 0x22 SLT KECCAK256 0x26 GT PUSH16 0x64C69C0C632540043211FE358A25D862 0xB4 BALANCE XOR LOG0 SWAP4 CALLCODE 0xD3 EQ SWAP14 0xE1 CALLDATACOPY SDIV GASLIMIT PUSH5 0x736F6C6343 STOP ADDMOD SMOD STOP CALLER "
				},
				"gasEstimates": {
					"creation": {
						"codeDepositCost": "59400",
						"executionCost": "22217",
						"totalCost": "81617"
					},
					"external": {
						"age2()": "2407",
						"getAge()": "2437",
						"getAgeNew()": "359",
						"updateAge()": "22302"
					}
				},
				"methodIdentifiers": {
					"age2()": "0e989a38",
					"getAge()": "967e6e65",
					"getAgeNew()": "a20f8c11",
					"updateAge()": "ecdb71bf"
				}
			},
			"storageLayout": {
				"storage": [
					{
						"astId": 3,
						"contract": "demoTask5/demo5.sol:First",
						"label": "age",
						"offset": 0,
						"slot": "0",
						"type": "t_int256"
					},
					{
						"astId": 6,
						"contract": "demoTask5/demo5.sol:First",
						"label": "age2",
						"offset": 0,
						"slot": "1",
						"type": "t_int256"
					}
				],
				"types": {
					"t_int256": {
						"encoding": "inplace",
						"label": "int256",
						"numberOfBytes": "32"
					}
				}
			},
			"userdoc": {
				"kind": "user",
				"methods": {},
				"version": 1
			}
		}
	}
}