{
	"demoTask5/demo5.sol": {
		"First": {
			"abi": [
				{
					"inputs": [],
					"name": "age2",
					"outputs": [
						{
							"internalType": "int256",
							"name": "",
							"type": "int256"
						}
					],
					"stateMutability": "view",
					"type": "function"
				},
				{
					"inputs": [],
					"name": "getAge",
					"outputs": [
						{
							"internalType": "int256",
							"name": "",
							"type": "int256"
						}
					],
					"stateMutability": "view",
					"type": "function"
				},
				{
					"inputs": [],
					"name": "updateAge",
					"outputs": [],
					"stateMutability": "nonpayable",
					"type": "function"
				}
			],
			"devdoc": {
				"kind": "dev",
				"methods": {},
				"version": 1
			},
			"evm": {
				"assembly": "    /* \"demoTask5/demo5.sol\":71:304  contract First{\r... */\n  mstore(0x40, 0x80)\n    /* \"demoTask5/demo5.sol\":132:134  56 */\n  0x38\n    /* \"demoTask5/demo5.sol\":115:134  int public age2 =56 */\n  0x01\n  sstore\n    /* \"demoTask5/demo5.sol\":71:304  contract First{\r... */\n  callvalue\n  dup1\n  iszero\n  tag_1\n  jumpi\n  0x00\n  dup1\n  revert\ntag_1:\n  pop\n  dataSize(sub_0)\n  dup1\n  dataOffset(sub_0)\n  0x00\n  codecopy\n  0x00\n  return\nstop\n\nsub_0: assembly {\n        /* \"demoTask5/demo5.sol\":71:304  contract First{\r... */\n      mstore(0x40, 0x80)\n      callvalue\n      dup1\n      iszero\n      tag_1\n      jumpi\n      0x00\n      dup1\n      revert\n    tag_1:\n      pop\n      jumpi(tag_2, lt(calldatasize, 0x04))\n      shr(0xe0, calldataload(0x00))\n      dup1\n      0x0e989a38\n      eq\n      tag_3\n      jumpi\n      dup1\n      0x967e6e65\n      eq\n      tag_4\n      jumpi\n      dup1\n      0xecdb71bf\n      eq\n      tag_5\n      jumpi\n    tag_2:\n      0x00\n      dup1\n      revert\n        /* \"demoTask5/demo5.sol\":115:134  int public age2 =56 */\n    tag_3:\n      tag_6\n      tag_7\n      jump\t// in\n    tag_6:\n      mload(0x40)\n      tag_8\n      swap2\n      swap1\n      tag_9\n      jump\t// in\n    tag_8:\n      mload(0x40)\n      dup1\n      swap2\n      sub\n      swap1\n      return\n        /* \"demoTask5/demo5.sol\":240:301  function getAge() public view returns (int){\r... */\n    tag_4:\n      tag_10\n      tag_11\n      jump\t// in\n    tag_10:\n      mload(0x40)\n      tag_12\n      swap2\n      swap1\n      tag_9\n      jump\t// in\n    tag_12:\n      mload(0x40)\n      dup1\n      swap2\n      sub\n      swap1\n      return\n        /* \"demoTask5/demo5.sol\":180:234  function updateAge() public{\r... */\n    tag_5:\n      tag_13\n      tag_14\n      jump\t// in\n    tag_13:\n      stop\n        /* \"demoTask5/demo5.sol\":115:134  int public age2 =56 */\n    tag_7:\n      sload(0x01)\n      dup2\n      jump\t// out\n        /* \"demoTask5/demo5.sol\":240:301  function getAge() public view returns (int){\r... */\n    tag_11:\n        /* \"demoTask5/demo5.sol\":279:282  int */\n      0x00\n        /* \"demoTask5/demo5.sol\":240:301  function getAge() public view returns (int){\r... */\n      swap1\n      jump\t// out\n        /* \"demoTask5/demo5.sol\":180:234  function updateAge() public{\r... */\n    tag_14:\n        /* \"demoTask5/demo5.sol\":224:226  12 */\n      0x0c\n        /* \"demoTask5/demo5.sol\":218:221  age */\n      0x00\n        /* \"demoTask5/demo5.sol\":218:226  age = 12 */\n      dup2\n      swap1\n      sstore\n      pop\n        /* \"demoTask5/demo5.sol\":180:234  function updateAge() public{\r... */\n      jump\t// out\n        /* \"#utility.yul\":7:122   */\n    tag_18:\n        /* \"#utility.yul\":92:115   */\n      tag_20\n        /* \"#utility.yul\":109:114   */\n      dup2\n        /* \"#utility.yul\":92:115   */\n      tag_21\n      jump\t// in\n    tag_20:\n        /* \"#utility.yul\":87:90   */\n      dup3\n        /* \"#utility.yul\":80:116   */\n      mstore\n        /* \"#utility.yul\":7:122   */\n      pop\n      pop\n      jump\t// out\n        /* \"#utility.yul\":128:346   */\n    tag_9:\n        /* \"#utility.yul\":219:223   */\n      0x00\n        /* \"#utility.yul\":257:259   */\n      0x20\n        /* \"#utility.yul\":246:255   */\n      dup3\n        /* \"#utility.yul\":242:260   */\n      add\n        /* \"#utility.yul\":234:260   */\n      swap1\n      pop\n        /* \"#utility.yul\":270:339   */\n      tag_23\n        /* \"#utility.yul\":336:337   */\n      0x00\n        /* \"#utility.yul\":325:334   */\n      dup4\n        /* \"#utility.yul\":321:338   */\n      add\n        /* \"#utility.yul\":312:318   */\n      dup5\n        /* \"#utility.yul\":270:339   */\n      tag_18\n      jump\t// in\n    tag_23:\n        /* \"#utility.yul\":128:346   */\n      swap3\n      swap2\n      pop\n      pop\n      jump\t// out\n        /* \"#utility.yul\":352:428   */\n    tag_21:\n        /* \"#utility.yul\":388:395   */\n      0x00\n        /* \"#utility.yul\":417:422   */\n      dup2\n        /* \"#utility.yul\":406:422   */\n      swap1\n      pop\n        /* \"#utility.yul\":352:428   */\n      swap2\n      swap1\n      pop\n      jump\t// out\n\n    auxdata: 0xa264697066735822122018c8b8d28c06c093a53f2c17de972e971daffda81cef1421313de717fd388d4264736f6c63430008070033\n}\n",
				"bytecode": {
					"linkReferences": {},
					"object": "6080604052603860015534801561001557600080fd5b5060f8806100246000396000f3fe6080604052348015600f57600080fd5b5060043610603c5760003560e01c80630e989a38146041578063967e6e6514605b578063ecdb71bf146075575b600080fd5b6047607d565b60405160529190609f565b60405180910390f35b60616083565b604051606c9190609f565b60405180910390f35b607b6088565b005b60015481565b600090565b600c600081905550565b60998160b8565b82525050565b600060208201905060b260008301846092565b92915050565b600081905091905056fea264697066735822122018c8b8d28c06c093a53f2c17de972e971daffda81cef1421313de717fd388d4264736f6c63430008070033",
					"opcodes": "PUSH1 0x80 PUSH1 0x40 MSTORE PUSH1 0x38 PUSH1 0x1 SSTORE CALLVALUE DUP1 ISZERO PUSH2 0x15 JUMPI PUSH1 0x0 DUP1 REVERT JUMPDEST POP PUSH1 0xF8 DUP1 PUSH2 0x24 PUSH1 0x0 CODECOPY PUSH1 0x0 RETURN INVALID PUSH1 0x80 PUSH1 0x40 MSTORE CALLVALUE DUP1 ISZERO PUSH1 0xF JUMPI PUSH1 0x0 DUP1 REVERT JUMPDEST POP PUSH1 0x4 CALLDATASIZE LT PUSH1 0x3C JUMPI PUSH1 0x0 CALLDATALOAD PUSH1 0xE0 SHR DUP1 PUSH4 0xE989A38 EQ PUSH1 0x41 JUMPI DUP1 PUSH4 0x967E6E65 EQ PUSH1 0x5B JUMPI DUP1 PUSH4 0xECDB71BF EQ PUSH1 0x75 JUMPI JUMPDEST PUSH1 0x0 DUP1 REVERT JUMPDEST PUSH1 0x47 PUSH1 0x7D JUMP JUMPDEST PUSH1 0x40 MLOAD PUSH1 0x52 SWAP2 SWAP1 PUSH1 0x9F JUMP JUMPDEST PUSH1 0x40 MLOAD DUP1 SWAP2 SUB SWAP1 RETURN JUMPDEST PUSH1 0x61 PUSH1 0x83 JUMP JUMPDEST PUSH1 0x40 MLOAD PUSH1 0x6C SWAP2 SWAP1 PUSH1 0x9F JUMP JUMPDEST PUSH1 0x40 MLOAD DUP1 SWAP2 SUB SWAP1 RETURN JUMPDEST PUSH1 0x7B PUSH1 0x88 JUMP JUMPDEST STOP JUMPDEST PUSH1 0x1 SLOAD DUP2 JUMP JUMPDEST PUSH1 0x0 SWAP1 JUMP JUMPDEST PUSH1 0xC PUSH1 0x0 DUP2 SWAP1 SSTORE POP JUMP JUMPDEST PUSH1 0x99 DUP2 PUSH1 0xB8 JUMP JUMPDEST DUP3 MSTORE POP POP JUMP JUMPDEST PUSH1 0x0 PUSH1 0x20 DUP3 ADD SWAP1 POP PUSH1 0xB2 PUSH1 0x0 DUP4 ADD DUP5 PUSH1 0x92 JUMP JUMPDEST SWAP3 SWAP2 POP POP JUMP JUMPDEST PUSH1 0x0 DUP2 SWAP1 POP SWAP2 SWAP1 POP JUMP INVALID LOG2 PUSH5 0x6970667358 0x22 SLT KECCAK256 XOR 0xC8 0xB8 0xD2 DUP13 MOD 0xC0 SWAP4 0xA5 EXTCODEHASH 0x2C OR 0xDE SWAP8 0x2E SWAP8 SAR 0xAF REVERT 0xA8 SHR 0xEF EQ 0x21 BALANCE RETURNDATASIZE 0xE7 OR REVERT CODESIZE DUP14 TIMESTAMP PUSH5 0x736F6C6343 STOP ADDMOD SMOD STOP CALLER "
				},
				"gasEstimates": {
					"creation": {
						"codeDepositCost": "49600",
						"executionCost": "22205",
						"totalCost": "71805"
					},
					"external": {
						"age2()": "2407",
						"getAge()": "329",
						"updateAge()": "22280"
					}
				},
				"methodIdentifiers": {
					"age2()": "0e989a38",
					"getAge()": "967e6e65",
					"updateAge()": "ecdb71bf"
				}
			},
			"storageLayout": {
				"storage": [
					{
						"astId": 3,
						"contract": "demoTask5/demo5.sol:First",
						"label": "age",
						"offset": 0,
						"slot": "0",
						"type": "t_int256"
					},
					{
						"astId": 6,
						"contract": "demoTask5/demo5.sol:First",
						"label": "age2",
						"offset": 0,
						"slot": "1",
						"type": "t_int256"
					}
				],
				"types": {
					"t_int256": {
						"encoding": "inplace",
						"label": "int256",
						"numberOfBytes": "32"
					}
				}
			},
			"userdoc": {
				"kind": "user",
				"methods": {},
				"version": 1
			}
		}
	}
}