{
	"demoTask5/demo5.sol": {
		"First": {
			"abi": [
				{
					"inputs": [],
					"name": "age2",
					"outputs": [
						{
							"internalType": "int256",
							"name": "",
							"type": "int256"
						}
					],
					"stateMutability": "view",
					"type": "function"
				},
				{
					"inputs": [],
					"name": "getAge",
					"outputs": [
						{
							"internalType": "int256",
							"name": "",
							"type": "int256"
						}
					],
					"stateMutability": "view",
					"type": "function"
				},
				{
					"inputs": [],
					"name": "getAgeNew",
					"outputs": [
						{
							"internalType": "int256",
							"name": "",
							"type": "int256"
						}
					],
					"stateMutability": "pure",
					"type": "function"
				},
				{
					"inputs": [],
					"name": "updateAge",
					"outputs": [],
					"stateMutability": "nonpayable",
					"type": "function"
				}
			],
			"devdoc": {
				"kind": "dev",
				"methods": {},
				"version": 1
			},
			"evm": {
				"assembly": "    /* \"demoTask5/demo5.sol\":71:397  contract First{\r... */\n  mstore(0x40, 0x80)\n    /* \"demoTask5/demo5.sol\":132:134  56 */\n  0x38\n    /* \"demoTask5/demo5.sol\":115:134  int public age2 =56 */\n  0x01\n  sstore\n    /* \"demoTask5/demo5.sol\":71:397  contract First{\r... */\n  callvalue\n  dup1\n  iszero\n  tag_1\n  jumpi\n  0x00\n  dup1\n  revert\ntag_1:\n  pop\n  dataSize(sub_0)\n  dup1\n  dataOffset(sub_0)\n  0x00\n  codecopy\n  0x00\n  return\nstop\n\nsub_0: assembly {\n        /* \"demoTask5/demo5.sol\":71:397  contract First{\r... */\n      mstore(0x40, 0x80)\n      callvalue\n      dup1\n      iszero\n      tag_1\n      jumpi\n      0x00\n      dup1\n      revert\n    tag_1:\n      pop\n      jumpi(tag_2, lt(calldatasize, 0x04))\n      shr(0xe0, calldataload(0x00))\n      dup1\n      0x0e989a38\n      eq\n      tag_3\n      jumpi\n      dup1\n      0x967e6e65\n      eq\n      tag_4\n      jumpi\n      dup1\n      0xa20f8c11\n      eq\n      tag_5\n      jumpi\n      dup1\n      0xecdb71bf\n      eq\n      tag_6\n      jumpi\n    tag_2:\n      0x00\n      dup1\n      revert\n        /* \"demoTask5/demo5.sol\":115:134  int public age2 =56 */\n    tag_3:\n      tag_7\n      tag_8\n      jump\t// in\n    tag_7:\n      mload(0x40)\n      dup1\n      dup3\n      dup2\n      mstore\n      0x20\n      add\n      swap2\n      pop\n      pop\n      mload(0x40)\n      dup1\n      swap2\n      sub\n      swap1\n      return\n        /* \"demoTask5/demo5.sol\":240:312  function getAge() public view returns (int){\r... */\n    tag_4:\n      tag_9\n      tag_10\n      jump\t// in\n    tag_9:\n      mload(0x40)\n      dup1\n      dup3\n      dup2\n      mstore\n      0x20\n      add\n      swap2\n      pop\n      pop\n      mload(0x40)\n      dup1\n      swap2\n      sub\n      swap1\n      return\n        /* \"demoTask5/demo5.sol\":318:394  function getAgeNew() public pure returns (int){\r... */\n    tag_5:\n      tag_11\n      tag_12\n      jump\t// in\n    tag_11:\n      mload(0x40)\n      dup1\n      dup3\n      dup2\n      mstore\n      0x20\n      add\n      swap2\n      pop\n      pop\n      mload(0x40)\n      dup1\n      swap2\n      sub\n      swap1\n      return\n        /* \"demoTask5/demo5.sol\":180:234  function updateAge() public{\r... */\n    tag_6:\n      tag_13\n      tag_14\n      jump\t// in\n    tag_13:\n      stop\n        /* \"demoTask5/demo5.sol\":115:134  int public age2 =56 */\n    tag_8:\n      sload(0x01)\n      dup2\n      jump\t// out\n        /* \"demoTask5/demo5.sol\":240:312  function getAge() public view returns (int){\r... */\n    tag_10:\n        /* \"demoTask5/demo5.sol\":279:282  int */\n      0x00\n        /* \"demoTask5/demo5.sol\":301:304  age */\n      dup1\n      sload\n        /* \"demoTask5/demo5.sol\":294:304  return age */\n      swap1\n      pop\n        /* \"demoTask5/demo5.sol\":240:312  function getAge() public view returns (int){\r... */\n      swap1\n      jump\t// out\n        /* \"demoTask5/demo5.sol\":318:394  function getAgeNew() public pure returns (int){\r... */\n    tag_12:\n        /* \"demoTask5/demo5.sol\":360:363  int */\n      0x00\n        /* \"demoTask5/demo5.sol\":169:171  60 */\n      0x3c\n        /* \"demoTask5/demo5.sol\":375:386  return age3 */\n      swap1\n      pop\n        /* \"demoTask5/demo5.sol\":318:394  function getAgeNew() public pure returns (int){\r... */\n      swap1\n      jump\t// out\n        /* \"demoTask5/demo5.sol\":180:234  function updateAge() public{\r... */\n    tag_14:\n        /* \"demoTask5/demo5.sol\":224:226  12 */\n      0x0c\n        /* \"demoTask5/demo5.sol\":218:221  age */\n      0x00\n        /* \"demoTask5/demo5.sol\":218:226  age = 12 */\n      dup2\n      swap1\n      sstore\n      pop\n        /* \"demoTask5/demo5.sol\":180:234  function updateAge() public{\r... */\n      jump\t// out\n\n    auxdata: 0xa264697066735822122049b4680e5d256a58f770d6d7df6f6c4268c02fa12cbb3727b3e22510096cc9e764736f6c637826302e372e322d646576656c6f702e323032302e392e342b636f6d6d69742e66393634393636300057\n}\n",
				"bytecode": {
					"linkReferences": {},
					"object": "6080604052603860015534801561001557600080fd5b50610123806100256000396000f3fe6080604052348015600f57600080fd5b506004361060465760003560e01c80630e989a3814604b578063967e6e65146067578063a20f8c11146083578063ecdb71bf14609f575b600080fd5b605160a7565b6040518082815260200191505060405180910390f35b606d60ad565b6040518082815260200191505060405180910390f35b608960b6565b6040518082815260200191505060405180910390f35b60a560bf565b005b60015481565b60008054905090565b6000603c905090565b600c60008190555056fea264697066735822122049b4680e5d256a58f770d6d7df6f6c4268c02fa12cbb3727b3e22510096cc9e764736f6c637826302e372e322d646576656c6f702e323032302e392e342b636f6d6d69742e66393634393636300057",
					"opcodes": "PUSH1 0x80 PUSH1 0x40 MSTORE PUSH1 0x38 PUSH1 0x1 SSTORE CALLVALUE DUP1 ISZERO PUSH2 0x15 JUMPI PUSH1 0x0 DUP1 REVERT JUMPDEST POP PUSH2 0x123 DUP1 PUSH2 0x25 PUSH1 0x0 CODECOPY PUSH1 0x0 RETURN INVALID PUSH1 0x80 PUSH1 0x40 MSTORE CALLVALUE DUP1 ISZERO PUSH1 0xF JUMPI PUSH1 0x0 DUP1 REVERT JUMPDEST POP PUSH1 0x4 CALLDATASIZE LT PUSH1 0x46 JUMPI PUSH1 0x0 CALLDATALOAD PUSH1 0xE0 SHR DUP1 PUSH4 0xE989A38 EQ PUSH1 0x4B JUMPI DUP1 PUSH4 0x967E6E65 EQ PUSH1 0x67 JUMPI DUP1 PUSH4 0xA20F8C11 EQ PUSH1 0x83 JUMPI DUP1 PUSH4 0xECDB71BF EQ PUSH1 0x9F JUMPI JUMPDEST PUSH1 0x0 DUP1 REVERT JUMPDEST PUSH1 0x51 PUSH1 0xA7 JUMP JUMPDEST PUSH1 0x40 MLOAD DUP1 DUP3 DUP2 MSTORE PUSH1 0x20 ADD SWAP2 POP POP PUSH1 0x40 MLOAD DUP1 SWAP2 SUB SWAP1 RETURN JUMPDEST PUSH1 0x6D PUSH1 0xAD JUMP JUMPDEST PUSH1 0x40 MLOAD DUP1 DUP3 DUP2 MSTORE PUSH1 0x20 ADD SWAP2 POP POP PUSH1 0x40 MLOAD DUP1 SWAP2 SUB SWAP1 RETURN JUMPDEST PUSH1 0x89 PUSH1 0xB6 JUMP JUMPDEST PUSH1 0x40 MLOAD DUP1 DUP3 DUP2 MSTORE PUSH1 0x20 ADD SWAP2 POP POP PUSH1 0x40 MLOAD DUP1 SWAP2 SUB SWAP1 RETURN JUMPDEST PUSH1 0xA5 PUSH1 0xBF JUMP JUMPDEST STOP JUMPDEST PUSH1 0x1 SLOAD DUP2 JUMP JUMPDEST PUSH1 0x0 DUP1 SLOAD SWAP1 POP SWAP1 JUMP JUMPDEST PUSH1 0x0 PUSH1 0x3C SWAP1 POP SWAP1 JUMP JUMPDEST PUSH1 0xC PUSH1 0x0 DUP2 SWAP1 SSTORE POP JUMP INVALID LOG2 PUSH5 0x6970667358 0x22 SLT KECCAK256 0x49 0xB4 PUSH9 0xE5D256A58F770D6D7 0xDF PUSH16 0x6C4268C02FA12CBB3727B3E22510096C 0xC9 0xE7 PUSH5 0x736F6C6378 0x26 ADDRESS 0x2E CALLDATACOPY 0x2E ORIGIN 0x2D PUSH5 0x6576656C6F PUSH17 0x2E323032302E392E342B636F6D6D69742E PUSH7 0x39363439363630 STOP JUMPI "
				},
				"gasEstimates": {
					"creation": {
						"codeDepositCost": "58200",
						"executionCost": "20117",
						"totalCost": "78317"
					},
					"external": {
						"age2()": "983",
						"getAge()": "1013",
						"getAgeNew()": "235",
						"updateAge()": "20202"
					}
				},
				"methodIdentifiers": {
					"age2()": "0e989a38",
					"getAge()": "967e6e65",
					"getAgeNew()": "a20f8c11",
					"updateAge()": "ecdb71bf"
				}
			},
			"storageLayout": {
				"storage": [
					{
						"astId": 3,
						"contract": "demoTask5/demo5.sol:First",
						"label": "age",
						"offset": 0,
						"slot": "0",
						"type": "t_int256"
					},
					{
						"astId": 6,
						"contract": "demoTask5/demo5.sol:First",
						"label": "age2",
						"offset": 0,
						"slot": "1",
						"type": "t_int256"
					}
				],
				"types": {
					"t_int256": {
						"encoding": "inplace",
						"label": "int256",
						"numberOfBytes": "32"
					}
				}
			},
			"userdoc": {
				"kind": "user",
				"methods": {},
				"version": 1
			}
		}
	}
}