{
	"data": {
		"bytecode": {
			"linkReferences": {},
			"object": "6080604052603860015534801561001557600080fd5b50610129806100256000396000f3fe6080604052348015600f57600080fd5b506004361060465760003560e01c80630e989a3814604b578063967e6e65146065578063a20f8c1114607f578063ecdb71bf146099575b600080fd5b605160a1565b604051605c919060d0565b60405180910390f35b606b60a7565b6040516076919060d0565b60405180910390f35b608560b0565b6040516090919060d0565b60405180910390f35b609f60b9565b005b60015481565b60008054905090565b6000603c905090565b600c600081905550565b60ca8160e9565b82525050565b600060208201905060e3600083018460c3565b92915050565b600081905091905056fea2646970667358221220c4bdf583173df557f3b7fa591d7fdbd471b6c0b36ac8a266a25b9b1b324f52db64736f6c63430008070033",
			"opcodes": "PUSH1 0x80 PUSH1 0x40 MSTORE PUSH1 0x38 PUSH1 0x1 SSTORE CALLVALUE DUP1 ISZERO PUSH2 0x15 JUMPI PUSH1 0x0 DUP1 REVERT JUMPDEST POP PUSH2 0x129 DUP1 PUSH2 0x25 PUSH1 0x0 CODECOPY PUSH1 0x0 RETURN INVALID PUSH1 0x80 PUSH1 0x40 MSTORE CALLVALUE DUP1 ISZERO PUSH1 0xF JUMPI PUSH1 0x0 DUP1 REVERT JUMPDEST POP PUSH1 0x4 CALLDATASIZE LT PUSH1 0x46 JUMPI PUSH1 0x0 CALLDATALOAD PUSH1 0xE0 SHR DUP1 PUSH4 0xE989A38 EQ PUSH1 0x4B JUMPI DUP1 PUSH4 0x967E6E65 EQ PUSH1 0x65 JUMPI DUP1 PUSH4 0xA20F8C11 EQ PUSH1 0x7F JUMPI DUP1 PUSH4 0xECDB71BF EQ PUSH1 0x99 JUMPI JUMPDEST PUSH1 0x0 DUP1 REVERT JUMPDEST PUSH1 0x51 PUSH1 0xA1 JUMP JUMPDEST PUSH1 0x40 MLOAD PUSH1 0x5C SWAP2 SWAP1 PUSH1 0xD0 JUMP JUMPDEST PUSH1 0x40 MLOAD DUP1 SWAP2 SUB SWAP1 RETURN JUMPDEST PUSH1 0x6B PUSH1 0xA7 JUMP JUMPDEST PUSH1 0x40 MLOAD PUSH1 0x76 SWAP2 SWAP1 PUSH1 0xD0 JUMP JUMPDEST PUSH1 0x40 MLOAD DUP1 SWAP2 SUB SWAP1 RETURN JUMPDEST PUSH1 0x85 PUSH1 0xB0 JUMP JUMPDEST PUSH1 0x40 MLOAD PUSH1 0x90 SWAP2 SWAP1 PUSH1 0xD0 JUMP JUMPDEST PUSH1 0x40 MLOAD DUP1 SWAP2 SUB SWAP1 RETURN JUMPDEST PUSH1 0x9F PUSH1 0xB9 JUMP JUMPDEST STOP JUMPDEST PUSH1 0x1 SLOAD DUP2 JUMP JUMPDEST PUSH1 0x0 DUP1 SLOAD SWAP1 POP SWAP1 JUMP JUMPDEST PUSH1 0x0 PUSH1 0x3C SWAP1 POP SWAP1 JUMP JUMPDEST PUSH1 0xC PUSH1 0x0 DUP2 SWAP1 SSTORE POP JUMP JUMPDEST PUSH1 0xCA DUP2 PUSH1 0xE9 JUMP JUMPDEST DUP3 MSTORE POP POP JUMP JUMPDEST PUSH1 0x0 PUSH1 0x20 DUP3 ADD SWAP1 POP PUSH1 0xE3 PUSH1 0x0 DUP4 ADD DUP5 PUSH1 0xC3 JUMP JUMPDEST SWAP3 SWAP2 POP POP JUMP JUMPDEST PUSH1 0x0 DUP2 SWAP1 POP SWAP2 SWAP1 POP JUMP INVALID LOG2 PUSH5 0x6970667358 0x22 SLT KECCAK256 0xC4 0xBD CREATE2 DUP4 OR RETURNDATASIZE CREATE2 JUMPI RETURN 0xB7 STATICCALL MSIZE SAR PUSH32 0xDBD471B6C0B36AC8A266A25B9B1B324F52DB64736F6C63430008070033000000 "
		},
		"gasEstimates": {
			"creation": {
				"codeDepositCost": "59400",
				"executionCost": "22217",
				"totalCost": "81617"
			},
			"external": {
				"age2()": "2407",
				"getAge()": "2437",
				"getAgeNew()": "359",
				"updateAge()": "22302"
			}
		},
		"methodIdentifiers": {
			"age2()": "0e989a38",
			"getAge()": "967e6e65",
			"getAgeNew()": "a20f8c11",
			"updateAge()": "ecdb71bf"
		}
	},
	"abi": [
		{
			"inputs": [],
			"name": "age2",
			"outputs": [
				{
					"internalType": "int256",
					"name": "",
					"type": "int256"
				}
			],
			"stateMutability": "view",
			"type": "function"
		},
		{
			"inputs": [],
			"name": "getAge",
			"outputs": [
				{
					"internalType": "int256",
					"name": "",
					"type": "int256"
				}
			],
			"stateMutability": "view",
			"type": "function"
		},
		{
			"inputs": [],
			"name": "getAgeNew",
			"outputs": [
				{
					"internalType": "int256",
					"name": "",
					"type": "int256"
				}
			],
			"stateMutability": "pure",
			"type": "function"
		},
		{
			"inputs": [],
			"name": "updateAge",
			"outputs": [],
			"stateMutability": "nonpayable",
			"type": "function"
		}
	]
}