{
	"helloworld.sol": {
		"HelloHira": {
			"abi": [
				{
					"inputs": [],
					"name": "decrease",
					"outputs": [],
					"stateMutability": "nonpayable",
					"type": "function"
				}
			],
			"devdoc": {
				"kind": "dev",
				"methods": {},
				"version": 1
			},
			"evm": {
				"assembly": "    /* \"helloworld.sol\":139:239  contract HelloHira {... */\n  mstore(0x40, 0x80)\n    /* \"helloworld.sol\":179:180  1 */\n  0x01\n    /* \"helloworld.sol\":164:180  uint256 value =1 */\n  0x00\n  sstore\n    /* \"helloworld.sol\":139:239  contract HelloHira {... */\n  callvalue\n  dup1\n  iszero\n  tag_1\n  jumpi\n  0x00\n  dup1\n  revert\ntag_1:\n  pop\n  dataSize(sub_0)\n  dup1\n  dataOffset(sub_0)\n  0x00\n  codecopy\n  0x00\n  return\nstop\n\nsub_0: assembly {\n        /* \"helloworld.sol\":139:239  contract HelloHira {... */\n      mstore(0x40, 0x80)\n      callvalue\n      dup1\n      iszero\n      tag_1\n      jumpi\n      0x00\n      dup1\n      revert\n    tag_1:\n      pop\n      jumpi(tag_2, lt(calldatasize, 0x04))\n      shr(0xe0, calldataload(0x00))\n      dup1\n      0xd732d955\n      eq\n      tag_3\n      jumpi\n    tag_2:\n      0x00\n      dup1\n      revert\n        /* \"helloworld.sol\":186:236  function decrease()public {... */\n    tag_3:\n      tag_4\n      tag_5\n      jump\t// in\n    tag_4:\n      stop\n    tag_5:\n        /* \"helloworld.sol\":222:227  value */\n      0x00\n      dup1\n        /* \"helloworld.sol\":222:229  value-- */\n      dup2\n      sload\n      dup1\n      swap3\n      swap2\n      swap1\n      tag_7\n      swap1\n      tag_8\n      jump\t// in\n    tag_7:\n      swap2\n      swap1\n      pop\n      sstore\n      pop\n        /* \"helloworld.sol\":186:236  function decrease()public {... */\n      jump\t// out\n        /* \"#utility.yul\":7:187   */\n    tag_9:\n        /* \"#utility.yul\":55:132   */\n      0x4e487b7100000000000000000000000000000000000000000000000000000000\n        /* \"#utility.yul\":52:53   */\n      0x00\n        /* \"#utility.yul\":45:133   */\n      mstore\n        /* \"#utility.yul\":152:156   */\n      0x11\n        /* \"#utility.yul\":149:150   */\n      0x04\n        /* \"#utility.yul\":142:157   */\n      mstore\n        /* \"#utility.yul\":176:180   */\n      0x24\n        /* \"#utility.yul\":173:174   */\n      0x00\n        /* \"#utility.yul\":166:181   */\n      revert\n        /* \"#utility.yul\":193:270   */\n    tag_10:\n        /* \"#utility.yul\":230:237   */\n      0x00\n        /* \"#utility.yul\":259:264   */\n      dup2\n        /* \"#utility.yul\":248:264   */\n      swap1\n      pop\n        /* \"#utility.yul\":193:270   */\n      swap2\n      swap1\n      pop\n      jump\t// out\n        /* \"#utility.yul\":276:447   */\n    tag_8:\n        /* \"#utility.yul\":315:318   */\n      0x00\n        /* \"#utility.yul\":338:362   */\n      tag_15\n        /* \"#utility.yul\":356:361   */\n      dup3\n        /* \"#utility.yul\":338:362   */\n      tag_10\n      jump\t// in\n    tag_15:\n        /* \"#utility.yul\":329:362   */\n      swap2\n      pop\n        /* \"#utility.yul\":384:388   */\n      0x00\n        /* \"#utility.yul\":377:382   */\n      dup3\n        /* \"#utility.yul\":374:389   */\n      sub\n        /* \"#utility.yul\":371:412   */\n      tag_16\n      jumpi\n        /* \"#utility.yul\":392:410   */\n      tag_17\n      tag_9\n      jump\t// in\n    tag_17:\n        /* \"#utility.yul\":371:412   */\n    tag_16:\n        /* \"#utility.yul\":439:440   */\n      0x01\n        /* \"#utility.yul\":432:437   */\n      dup3\n        /* \"#utility.yul\":428:441   */\n      sub\n        /* \"#utility.yul\":421:441   */\n      swap1\n      pop\n        /* \"#utility.yul\":276:447   */\n      swap2\n      swap1\n      pop\n      jump\t// out\n\n    auxdata: 0xa2646970667358221220bedd69b78ff0f7b42c1af144a5c1860fc57dee827715a2215c60f734198ddc2a64736f6c634300080f0033\n}\n",
				"bytecode": {
					"linkReferences": {},
					"object": "6080604052600160005534801561001557600080fd5b5060df806100246000396000f3fe6080604052348015600f57600080fd5b506004361060285760003560e01c8063d732d95514602d575b600080fd5b60336035565b005b6000808154809291906045906085565b9190505550565b7f4e487b7100000000000000000000000000000000000000000000000000000000600052601160045260246000fd5b6000819050919050565b6000608e82607b565b915060008203609e57609d604c565b5b60018203905091905056fea2646970667358221220bedd69b78ff0f7b42c1af144a5c1860fc57dee827715a2215c60f734198ddc2a64736f6c634300080f0033",
					"opcodes": "PUSH1 0x80 PUSH1 0x40 MSTORE PUSH1 0x1 PUSH1 0x0 SSTORE CALLVALUE DUP1 ISZERO PUSH2 0x15 JUMPI PUSH1 0x0 DUP1 REVERT JUMPDEST POP PUSH1 0xDF DUP1 PUSH2 0x24 PUSH1 0x0 CODECOPY PUSH1 0x0 RETURN INVALID PUSH1 0x80 PUSH1 0x40 MSTORE CALLVALUE DUP1 ISZERO PUSH1 0xF JUMPI PUSH1 0x0 DUP1 REVERT JUMPDEST POP PUSH1 0x4 CALLDATASIZE LT PUSH1 0x28 JUMPI PUSH1 0x0 CALLDATALOAD PUSH1 0xE0 SHR DUP1 PUSH4 0xD732D955 EQ PUSH1 0x2D JUMPI JUMPDEST PUSH1 0x0 DUP1 REVERT JUMPDEST PUSH1 0x33 PUSH1 0x35 JUMP JUMPDEST STOP JUMPDEST PUSH1 0x0 DUP1 DUP2 SLOAD DUP1 SWAP3 SWAP2 SWAP1 PUSH1 0x45 SWAP1 PUSH1 0x85 JUMP JUMPDEST SWAP2 SWAP1 POP SSTORE POP JUMP JUMPDEST PUSH32 0x4E487B7100000000000000000000000000000000000000000000000000000000 PUSH1 0x0 MSTORE PUSH1 0x11 PUSH1 0x4 MSTORE PUSH1 0x24 PUSH1 0x0 REVERT JUMPDEST PUSH1 0x0 DUP2 SWAP1 POP SWAP2 SWAP1 POP JUMP JUMPDEST PUSH1 0x0 PUSH1 0x8E DUP3 PUSH1 0x7B JUMP JUMPDEST SWAP2 POP PUSH1 0x0 DUP3 SUB PUSH1 0x9E JUMPI PUSH1 0x9D PUSH1 0x4C JUMP JUMPDEST JUMPDEST PUSH1 0x1 DUP3 SUB SWAP1 POP SWAP2 SWAP1 POP JUMP INVALID LOG2 PUSH5 0x6970667358 0x22 SLT KECCAK256 0xBE 0xDD PUSH10 0xB78FF0F7B42C1AF144A5 0xC1 DUP7 0xF 0xC5 PUSH30 0xEE827715A2215C60F734198DDC2A64736F6C634300080F00330000000000 "
				},
				"gasEstimates": {
					"creation": {
						"codeDepositCost": "44600",
						"executionCost": "22199",
						"totalCost": "66799"
					},
					"external": {
						"decrease()": "24479"
					}
				},
				"methodIdentifiers": {
					"decrease()": "d732d955"
				}
			},
			"storageLayout": {
				"storage": [
					{
						"astId": 4,
						"contract": "helloworld.sol:HelloHira",
						"label": "value",
						"offset": 0,
						"slot": "0",
						"type": "t_uint256"
					}
				],
				"types": {
					"t_uint256": {
						"encoding": "inplace",
						"label": "uint256",
						"numberOfBytes": "32"
					}
				}
			},
			"userdoc": {
				"kind": "user",
				"methods": {},
				"version": 1
			}
		}
	}
}