{
	"practice2.sol": {
		"Mapping": {
			"abi": [
				{
					"inputs": [
						{
							"internalType": "address",
							"name": "_addr",
							"type": "address"
						},
						{
							"internalType": "uint256",
							"name": "_xyz",
							"type": "uint256"
						}
					],
					"name": "get",
					"outputs": [],
					"stateMutability": "nonpayable",
					"type": "function"
				},
				{
					"inputs": [
						{
							"internalType": "address",
							"name": "",
							"type": "address"
						}
					],
					"name": "testMapping",
					"outputs": [
						{
							"internalType": "uint256",
							"name": "",
							"type": "uint256"
						}
					],
					"stateMutability": "view",
					"type": "function"
				}
			],
			"devdoc": {
				"kind": "dev",
				"methods": {},
				"version": 1
			},
			"evm": {
				"assembly": "    /* \"practice2.sol\":62:233  contract Mapping{\r... */\n  mstore(0x40, 0x80)\n  callvalue\n  dup1\n  iszero\n  tag_1\n  jumpi\n  0x00\n  dup1\n  revert\ntag_1:\n  pop\n  dataSize(sub_0)\n  dup1\n  dataOffset(sub_0)\n  0x00\n  codecopy\n  0x00\n  return\nstop\n\nsub_0: assembly {\n        /* \"practice2.sol\":62:233  contract Mapping{\r... */\n      mstore(0x40, 0x80)\n      callvalue\n      dup1\n      iszero\n      tag_1\n      jumpi\n      0x00\n      dup1\n      revert\n    tag_1:\n      pop\n      jumpi(tag_2, lt(calldatasize, 0x04))\n      shr(0xe0, calldataload(0x00))\n      dup1\n      0xb464631b\n      eq\n      tag_3\n      jumpi\n      dup1\n      0xd179faae\n      eq\n      tag_4\n      jumpi\n    tag_2:\n      0x00\n      dup1\n      revert\n        /* \"practice2.sol\":139:230  function get(address _addr, uint _xyz) public{\r... */\n    tag_3:\n      tag_5\n      0x04\n      dup1\n      calldatasize\n      sub\n      dup2\n      add\n      swap1\n      tag_6\n      swap2\n      swap1\n      tag_7\n      jump\t// in\n    tag_6:\n      tag_8\n      jump\t// in\n    tag_5:\n      stop\n        /* \"practice2.sol\":87:130  mapping(address => uint) public testMapping */\n    tag_4:\n      tag_9\n      0x04\n      dup1\n      calldatasize\n      sub\n      dup2\n      add\n      swap1\n      tag_10\n      swap2\n      swap1\n      tag_11\n      jump\t// in\n    tag_10:\n      tag_12\n      jump\t// in\n    tag_9:\n      mload(0x40)\n      tag_13\n      swap2\n      swap1\n      tag_14\n      jump\t// in\n    tag_13:\n      mload(0x40)\n      dup1\n      swap2\n      sub\n      swap1\n      return\n        /* \"practice2.sol\":139:230  function get(address _addr, uint _xyz) public{\r... */\n    tag_8:\n        /* \"practice2.sol\":218:222  _xyz */\n      dup1\n        /* \"practice2.sol\":197:208  testMapping */\n      0x00\n        /* \"practice2.sol\":197:215  testMapping[_addr] */\n      dup1\n        /* \"practice2.sol\":209:214  _addr */\n      dup5\n        /* \"practice2.sol\":197:215  testMapping[_addr] */\n      0xffffffffffffffffffffffffffffffffffffffff\n      and\n      0xffffffffffffffffffffffffffffffffffffffff\n      and\n      dup2\n      mstore\n      0x20\n      add\n      swap1\n      dup2\n      mstore\n      0x20\n      add\n      0x00\n      keccak256\n        /* \"practice2.sol\":197:222  testMapping[_addr] = _xyz */\n      dup2\n      swap1\n      sstore\n      pop\n        /* \"practice2.sol\":139:230  function get(address _addr, uint _xyz) public{\r... */\n      pop\n      pop\n      jump\t// out\n        /* \"practice2.sol\":87:130  mapping(address => uint) public testMapping */\n    tag_12:\n      mstore(0x20, 0x00)\n      dup1\n      0x00\n      mstore\n      keccak256(0x00, 0x40)\n      0x00\n      swap2\n      pop\n      swap1\n      pop\n      sload\n      dup2\n      jump\t// out\n        /* \"#utility.yul\":7:146   */\n    tag_17:\n        /* \"#utility.yul\":53:58   */\n      0x00\n        /* \"#utility.yul\":91:97   */\n      dup2\n        /* \"#utility.yul\":78:98   */\n      calldataload\n        /* \"#utility.yul\":69:98   */\n      swap1\n      pop\n        /* \"#utility.yul\":107:140   */\n      tag_19\n        /* \"#utility.yul\":134:139   */\n      dup2\n        /* \"#utility.yul\":107:140   */\n      tag_20\n      jump\t// in\n    tag_19:\n        /* \"#utility.yul\":7:146   */\n      swap3\n      swap2\n      pop\n      pop\n      jump\t// out\n        /* \"#utility.yul\":152:291   */\n    tag_21:\n        /* \"#utility.yul\":198:203   */\n      0x00\n        /* \"#utility.yul\":236:242   */\n      dup2\n        /* \"#utility.yul\":223:243   */\n      calldataload\n        /* \"#utility.yul\":214:243   */\n      swap1\n      pop\n        /* \"#utility.yul\":252:285   */\n      tag_23\n        /* \"#utility.yul\":279:284   */\n      dup2\n        /* \"#utility.yul\":252:285   */\n      tag_24\n      jump\t// in\n    tag_23:\n        /* \"#utility.yul\":152:291   */\n      swap3\n      swap2\n      pop\n      pop\n      jump\t// out\n        /* \"#utility.yul\":297:626   */\n    tag_11:\n        /* \"#utility.yul\":356:362   */\n      0x00\n        /* \"#utility.yul\":405:407   */\n      0x20\n        /* \"#utility.yul\":393:402   */\n      dup3\n        /* \"#utility.yul\":384:391   */\n      dup5\n        /* \"#utility.yul\":380:403   */\n      sub\n        /* \"#utility.yul\":376:408   */\n      slt\n        /* \"#utility.yul\":373:492   */\n      iszero\n      tag_26\n      jumpi\n        /* \"#utility.yul\":411:490   */\n      tag_27\n      tag_28\n      jump\t// in\n    tag_27:\n        /* \"#utility.yul\":373:492   */\n    tag_26:\n        /* \"#utility.yul\":531:532   */\n      0x00\n        /* \"#utility.yul\":556:609   */\n      tag_29\n        /* \"#utility.yul\":601:608   */\n      dup5\n        /* \"#utility.yul\":592:598   */\n      dup3\n        /* \"#utility.yul\":581:590   */\n      dup6\n        /* \"#utility.yul\":577:599   */\n      add\n        /* \"#utility.yul\":556:609   */\n      tag_17\n      jump\t// in\n    tag_29:\n        /* \"#utility.yul\":546:609   */\n      swap2\n      pop\n        /* \"#utility.yul\":502:619   */\n      pop\n        /* \"#utility.yul\":297:626   */\n      swap3\n      swap2\n      pop\n      pop\n      jump\t// out\n        /* \"#utility.yul\":632:1106   */\n    tag_7:\n        /* \"#utility.yul\":700:706   */\n      0x00\n        /* \"#utility.yul\":708:714   */\n      dup1\n        /* \"#utility.yul\":757:759   */\n      0x40\n        /* \"#utility.yul\":745:754   */\n      dup4\n        /* \"#utility.yul\":736:743   */\n      dup6\n        /* \"#utility.yul\":732:755   */\n      sub\n        /* \"#utility.yul\":728:760   */\n      slt\n        /* \"#utility.yul\":725:844   */\n      iszero\n      tag_31\n      jumpi\n        /* \"#utility.yul\":763:842   */\n      tag_32\n      tag_28\n      jump\t// in\n    tag_32:\n        /* \"#utility.yul\":725:844   */\n    tag_31:\n        /* \"#utility.yul\":883:884   */\n      0x00\n        /* \"#utility.yul\":908:961   */\n      tag_33\n        /* \"#utility.yul\":953:960   */\n      dup6\n        /* \"#utility.yul\":944:950   */\n      dup3\n        /* \"#utility.yul\":933:942   */\n      dup7\n        /* \"#utility.yul\":929:951   */\n      add\n        /* \"#utility.yul\":908:961   */\n      tag_17\n      jump\t// in\n    tag_33:\n        /* \"#utility.yul\":898:961   */\n      swap3\n      pop\n        /* \"#utility.yul\":854:971   */\n      pop\n        /* \"#utility.yul\":1010:1012   */\n      0x20\n        /* \"#utility.yul\":1036:1089   */\n      tag_34\n        /* \"#utility.yul\":1081:1088   */\n      dup6\n        /* \"#utility.yul\":1072:1078   */\n      dup3\n        /* \"#utility.yul\":1061:1070   */\n      dup7\n        /* \"#utility.yul\":1057:1079   */\n      add\n        /* \"#utility.yul\":1036:1089   */\n      tag_21\n      jump\t// in\n    tag_34:\n        /* \"#utility.yul\":1026:1089   */\n      swap2\n      pop\n        /* \"#utility.yul\":981:1099   */\n      pop\n        /* \"#utility.yul\":632:1106   */\n      swap3\n      pop\n      swap3\n      swap1\n      pop\n      jump\t// out\n        /* \"#utility.yul\":1112:1230   */\n    tag_35:\n        /* \"#utility.yul\":1199:1223   */\n      tag_37\n        /* \"#utility.yul\":1217:1222   */\n      dup2\n        /* \"#utility.yul\":1199:1223   */\n      tag_38\n      jump\t// in\n    tag_37:\n        /* \"#utility.yul\":1194:1197   */\n      dup3\n        /* \"#utility.yul\":1187:1224   */\n      mstore\n        /* \"#utility.yul\":1112:1230   */\n      pop\n      pop\n      jump\t// out\n        /* \"#utility.yul\":1236:1458   */\n    tag_14:\n        /* \"#utility.yul\":1329:1333   */\n      0x00\n        /* \"#utility.yul\":1367:1369   */\n      0x20\n        /* \"#utility.yul\":1356:1365   */\n      dup3\n        /* \"#utility.yul\":1352:1370   */\n      add\n        /* \"#utility.yul\":1344:1370   */\n      swap1\n      pop\n        /* \"#utility.yul\":1380:1451   */\n      tag_40\n        /* \"#utility.yul\":1448:1449   */\n      0x00\n        /* \"#utility.yul\":1437:1446   */\n      dup4\n        /* \"#utility.yul\":1433:1450   */\n      add\n        /* \"#utility.yul\":1424:1430   */\n      dup5\n        /* \"#utility.yul\":1380:1451   */\n      tag_35\n      jump\t// in\n    tag_40:\n        /* \"#utility.yul\":1236:1458   */\n      swap3\n      swap2\n      pop\n      pop\n      jump\t// out\n        /* \"#utility.yul\":1545:1641   */\n    tag_43:\n        /* \"#utility.yul\":1582:1589   */\n      0x00\n        /* \"#utility.yul\":1611:1635   */\n      tag_45\n        /* \"#utility.yul\":1629:1634   */\n      dup3\n        /* \"#utility.yul\":1611:1635   */\n      tag_46\n      jump\t// in\n    tag_45:\n        /* \"#utility.yul\":1600:1635   */\n      swap1\n      pop\n        /* \"#utility.yul\":1545:1641   */\n      swap2\n      swap1\n      pop\n      jump\t// out\n        /* \"#utility.yul\":1647:1773   */\n    tag_46:\n        /* \"#utility.yul\":1684:1691   */\n      0x00\n        /* \"#utility.yul\":1724:1766   */\n      0xffffffffffffffffffffffffffffffffffffffff\n        /* \"#utility.yul\":1717:1722   */\n      dup3\n        /* \"#utility.yul\":1713:1767   */\n      and\n        /* \"#utility.yul\":1702:1767   */\n      swap1\n      pop\n        /* \"#utility.yul\":1647:1773   */\n      swap2\n      swap1\n      pop\n      jump\t// out\n        /* \"#utility.yul\":1779:1856   */\n    tag_38:\n        /* \"#utility.yul\":1816:1823   */\n      0x00\n        /* \"#utility.yul\":1845:1850   */\n      dup2\n        /* \"#utility.yul\":1834:1850   */\n      swap1\n      pop\n        /* \"#utility.yul\":1779:1856   */\n      swap2\n      swap1\n      pop\n      jump\t// out\n        /* \"#utility.yul\":1985:2102   */\n    tag_28:\n        /* \"#utility.yul\":2094:2095   */\n      0x00\n        /* \"#utility.yul\":2091:2092   */\n      dup1\n        /* \"#utility.yul\":2084:2096   */\n      revert\n        /* \"#utility.yul\":2108:2230   */\n    tag_20:\n        /* \"#utility.yul\":2181:2205   */\n      tag_53\n        /* \"#utility.yul\":2199:2204   */\n      dup2\n        /* \"#utility.yul\":2181:2205   */\n      tag_43\n      jump\t// in\n    tag_53:\n        /* \"#utility.yul\":2174:2179   */\n      dup2\n        /* \"#utility.yul\":2171:2206   */\n      eq\n        /* \"#utility.yul\":2161:2224   */\n      tag_54\n      jumpi\n        /* \"#utility.yul\":2220:2221   */\n      0x00\n        /* \"#utility.yul\":2217:2218   */\n      dup1\n        /* \"#utility.yul\":2210:2222   */\n      revert\n        /* \"#utility.yul\":2161:2224   */\n    tag_54:\n        /* \"#utility.yul\":2108:2230   */\n      pop\n      jump\t// out\n        /* \"#utility.yul\":2236:2358   */\n    tag_24:\n        /* \"#utility.yul\":2309:2333   */\n      tag_56\n        /* \"#utility.yul\":2327:2332   */\n      dup2\n        /* \"#utility.yul\":2309:2333   */\n      tag_38\n      jump\t// in\n    tag_56:\n        /* \"#utility.yul\":2302:2307   */\n      dup2\n        /* \"#utility.yul\":2299:2334   */\n      eq\n        /* \"#utility.yul\":2289:2352   */\n      tag_57\n      jumpi\n        /* \"#utility.yul\":2348:2349   */\n      0x00\n        /* \"#utility.yul\":2345:2346   */\n      dup1\n        /* \"#utility.yul\":2338:2350   */\n      revert\n        /* \"#utility.yul\":2289:2352   */\n    tag_57:\n        /* \"#utility.yul\":2236:2358   */\n      pop\n      jump\t// out\n\n    auxdata: 0xa264697066735822122044b2ae61a92510957b362095aa513928de09fce945041ed99ca772995c9d612464736f6c63430008070033\n}\n",
				"bytecode": {
					"linkReferences": {},
					"object": "608060405234801561001057600080fd5b5061024c806100206000396000f3fe608060405234801561001057600080fd5b50600436106100365760003560e01c8063b464631b1461003b578063d179faae14610057575b600080fd5b6100556004803603810190610050919061013d565b610087565b005b610071600480360381019061006c9190610110565b6100ce565b60405161007e919061018c565b60405180910390f35b806000808473ffffffffffffffffffffffffffffffffffffffff1673ffffffffffffffffffffffffffffffffffffffff168152602001908152602001600020819055505050565b60006020528060005260406000206000915090505481565b6000813590506100f5816101e8565b92915050565b60008135905061010a816101ff565b92915050565b600060208284031215610126576101256101e3565b5b6000610134848285016100e6565b91505092915050565b60008060408385031215610154576101536101e3565b5b6000610162858286016100e6565b9250506020610173858286016100fb565b9150509250929050565b610186816101d9565b82525050565b60006020820190506101a1600083018461017d565b92915050565b60006101b2826101b9565b9050919050565b600073ffffffffffffffffffffffffffffffffffffffff82169050919050565b6000819050919050565b600080fd5b6101f1816101a7565b81146101fc57600080fd5b50565b610208816101d9565b811461021357600080fd5b5056fea264697066735822122044b2ae61a92510957b362095aa513928de09fce945041ed99ca772995c9d612464736f6c63430008070033",
					"opcodes": "PUSH1 0x80 PUSH1 0x40 MSTORE CALLVALUE DUP1 ISZERO PUSH2 0x10 JUMPI PUSH1 0x0 DUP1 REVERT JUMPDEST POP PUSH2 0x24C DUP1 PUSH2 0x20 PUSH1 0x0 CODECOPY PUSH1 0x0 RETURN INVALID PUSH1 0x80 PUSH1 0x40 MSTORE CALLVALUE DUP1 ISZERO PUSH2 0x10 JUMPI PUSH1 0x0 DUP1 REVERT JUMPDEST POP PUSH1 0x4 CALLDATASIZE LT PUSH2 0x36 JUMPI PUSH1 0x0 CALLDATALOAD PUSH1 0xE0 SHR DUP1 PUSH4 0xB464631B EQ PUSH2 0x3B JUMPI DUP1 PUSH4 0xD179FAAE EQ PUSH2 0x57 JUMPI JUMPDEST PUSH1 0x0 DUP1 REVERT JUMPDEST PUSH2 0x55 PUSH1 0x4 DUP1 CALLDATASIZE SUB DUP2 ADD SWAP1 PUSH2 0x50 SWAP2 SWAP1 PUSH2 0x13D JUMP JUMPDEST PUSH2 0x87 JUMP JUMPDEST STOP JUMPDEST PUSH2 0x71 PUSH1 0x4 DUP1 CALLDATASIZE SUB DUP2 ADD SWAP1 PUSH2 0x6C SWAP2 SWAP1 PUSH2 0x110 JUMP JUMPDEST PUSH2 0xCE JUMP JUMPDEST PUSH1 0x40 MLOAD PUSH2 0x7E SWAP2 SWAP1 PUSH2 0x18C JUMP JUMPDEST PUSH1 0x40 MLOAD DUP1 SWAP2 SUB SWAP1 RETURN JUMPDEST DUP1 PUSH1 0x0 DUP1 DUP5 PUSH20 0xFFFFFFFFFFFFFFFFFFFFFFFFFFFFFFFFFFFFFFFF AND PUSH20 0xFFFFFFFFFFFFFFFFFFFFFFFFFFFFFFFFFFFFFFFF AND DUP2 MSTORE PUSH1 0x20 ADD SWAP1 DUP2 MSTORE PUSH1 0x20 ADD PUSH1 0x0 KECCAK256 DUP2 SWAP1 SSTORE POP POP POP JUMP JUMPDEST PUSH1 0x0 PUSH1 0x20 MSTORE DUP1 PUSH1 0x0 MSTORE PUSH1 0x40 PUSH1 0x0 KECCAK256 PUSH1 0x0 SWAP2 POP SWAP1 POP SLOAD DUP2 JUMP JUMPDEST PUSH1 0x0 DUP2 CALLDATALOAD SWAP1 POP PUSH2 0xF5 DUP2 PUSH2 0x1E8 JUMP JUMPDEST SWAP3 SWAP2 POP POP JUMP JUMPDEST PUSH1 0x0 DUP2 CALLDATALOAD SWAP1 POP PUSH2 0x10A DUP2 PUSH2 0x1FF JUMP JUMPDEST SWAP3 SWAP2 POP POP JUMP JUMPDEST PUSH1 0x0 PUSH1 0x20 DUP3 DUP5 SUB SLT ISZERO PUSH2 0x126 JUMPI PUSH2 0x125 PUSH2 0x1E3 JUMP JUMPDEST JUMPDEST PUSH1 0x0 PUSH2 0x134 DUP5 DUP3 DUP6 ADD PUSH2 0xE6 JUMP JUMPDEST SWAP2 POP POP SWAP3 SWAP2 POP POP JUMP JUMPDEST PUSH1 0x0 DUP1 PUSH1 0x40 DUP4 DUP6 SUB SLT ISZERO PUSH2 0x154 JUMPI PUSH2 0x153 PUSH2 0x1E3 JUMP JUMPDEST JUMPDEST PUSH1 0x0 PUSH2 0x162 DUP6 DUP3 DUP7 ADD PUSH2 0xE6 JUMP JUMPDEST SWAP3 POP POP PUSH1 0x20 PUSH2 0x173 DUP6 DUP3 DUP7 ADD PUSH2 0xFB JUMP JUMPDEST SWAP2 POP POP SWAP3 POP SWAP3 SWAP1 POP JUMP JUMPDEST PUSH2 0x186 DUP2 PUSH2 0x1D9 JUMP JUMPDEST DUP3 MSTORE POP POP JUMP JUMPDEST PUSH1 0x0 PUSH1 0x20 DUP3 ADD SWAP1 POP PUSH2 0x1A1 PUSH1 0x0 DUP4 ADD DUP5 PUSH2 0x17D JUMP JUMPDEST SWAP3 SWAP2 POP POP JUMP JUMPDEST PUSH1 0x0 PUSH2 0x1B2 DUP3 PUSH2 0x1B9 JUMP JUMPDEST SWAP1 POP SWAP2 SWAP1 POP JUMP JUMPDEST PUSH1 0x0 PUSH20 0xFFFFFFFFFFFFFFFFFFFFFFFFFFFFFFFFFFFFFFFF DUP3 AND SWAP1 POP SWAP2 SWAP1 POP JUMP JUMPDEST PUSH1 0x0 DUP2 SWAP1 POP SWAP2 SWAP1 POP JUMP JUMPDEST PUSH1 0x0 DUP1 REVERT JUMPDEST PUSH2 0x1F1 DUP2 PUSH2 0x1A7 JUMP JUMPDEST DUP2 EQ PUSH2 0x1FC JUMPI PUSH1 0x0 DUP1 REVERT JUMPDEST POP JUMP JUMPDEST PUSH2 0x208 DUP2 PUSH2 0x1D9 JUMP JUMPDEST DUP2 EQ PUSH2 0x213 JUMPI PUSH1 0x0 DUP1 REVERT JUMPDEST POP JUMP INVALID LOG2 PUSH5 0x6970667358 0x22 SLT KECCAK256 DIFFICULTY 0xB2 0xAE PUSH2 0xA925 LT SWAP6 PUSH28 0x362095AA513928DE09FCE945041ED99CA772995C9D612464736F6C63 NUMBER STOP ADDMOD SMOD STOP CALLER "
				},
				"gasEstimates": {
					"creation": {
						"codeDepositCost": "117600",
						"executionCost": "165",
						"totalCost": "117765"
					},
					"external": {
						"get(address,uint256)": "22810",
						"testMapping(address)": "2814"
					}
				},
				"methodIdentifiers": {
					"get(address,uint256)": "b464631b",
					"testMapping(address)": "d179faae"
				}
			},
			"storageLayout": {
				"storage": [
					{
						"astId": 5,
						"contract": "practice2.sol:Mapping",
						"label": "testMapping",
						"offset": 0,
						"slot": "0",
						"type": "t_mapping(t_address,t_uint256)"
					}
				],
				"types": {
					"t_address": {
						"encoding": "inplace",
						"label": "address",
						"numberOfBytes": "20"
					},
					"t_mapping(t_address,t_uint256)": {
						"encoding": "mapping",
						"key": "t_address",
						"label": "mapping(address => uint256)",
						"numberOfBytes": "32",
						"value": "t_uint256"
					},
					"t_uint256": {
						"encoding": "inplace",
						"label": "uint256",
						"numberOfBytes": "32"
					}
				}
			},
			"userdoc": {
				"kind": "user",
				"methods": {},
				"version": 1
			}
		}
	}
}