{
	"demoTask3/demo3.sol": {
		"First": {
			"abi": [
				{
					"inputs": [],
					"name": "age2",
					"outputs": [
						{
							"internalType": "int256",
							"name": "",
							"type": "int256"
						}
					],
					"stateMutability": "view",
					"type": "function"
				},
				{
					"inputs": [],
					"name": "getAge",
					"outputs": [
						{
							"internalType": "int256",
							"name": "",
							"type": "int256"
						}
					],
					"stateMutability": "view",
					"type": "function"
				}
			],
			"devdoc": {
				"kind": "dev",
				"methods": {},
				"version": 1
			},
			"evm": {
				"assembly": "    /* \"demoTask3/demo3.sol\":71:269  contract First{\r... */\n  mstore(0x40, 0x80)\n    /* \"demoTask3/demo3.sol\":113:115  40 */\n  0x28\n    /* \"demoTask3/demo3.sol\":94:115  int internal age = 40 */\n  0x00\n  sstore\n    /* \"demoTask3/demo3.sol\":140:142  56 */\n  0x38\n    /* \"demoTask3/demo3.sol\":122:142  int public age2 = 56 */\n  0x01\n  sstore\n    /* \"demoTask3/demo3.sol\":71:269  contract First{\r... */\n  callvalue\n  dup1\n  iszero\n  tag_1\n  jumpi\n  0x00\n  dup1\n  revert\ntag_1:\n  pop\n  dataSize(sub_0)\n  dup1\n  dataOffset(sub_0)\n  0x00\n  codecopy\n  0x00\n  return\nstop\n\nsub_0: assembly {\n        /* \"demoTask3/demo3.sol\":71:269  contract First{\r... */\n      mstore(0x40, 0x80)\n      callvalue\n      dup1\n      iszero\n      tag_1\n      jumpi\n      0x00\n      dup1\n      revert\n    tag_1:\n      pop\n      jumpi(tag_2, lt(calldatasize, 0x04))\n      shr(0xe0, calldataload(0x00))\n      dup1\n      0x0e989a38\n      eq\n      tag_3\n      jumpi\n      dup1\n      0x967e6e65\n      eq\n      tag_4\n      jumpi\n    tag_2:\n      0x00\n      dup1\n      revert\n        /* \"demoTask3/demo3.sol\":122:142  int public age2 = 56 */\n    tag_3:\n      tag_5\n      tag_6\n      jump\t// in\n    tag_5:\n      mload(0x40)\n      tag_7\n      swap2\n      swap1\n      tag_8\n      jump\t// in\n    tag_7:\n      mload(0x40)\n      dup1\n      swap2\n      sub\n      swap1\n      return\n        /* \"demoTask3/demo3.sol\":192:266  function getAge() public view returns (int){\r... */\n    tag_4:\n      tag_9\n      tag_10\n      jump\t// in\n    tag_9:\n      mload(0x40)\n      tag_11\n      swap2\n      swap1\n      tag_8\n      jump\t// in\n    tag_11:\n      mload(0x40)\n      dup1\n      swap2\n      sub\n      swap1\n      return\n        /* \"demoTask3/demo3.sol\":122:142  int public age2 = 56 */\n    tag_6:\n      sload(0x01)\n      dup2\n      jump\t// out\n        /* \"demoTask3/demo3.sol\":192:266  function getAge() public view returns (int){\r... */\n    tag_10:\n        /* \"demoTask3/demo3.sol\":231:234  int */\n      0x00\n        /* \"demoTask3/demo3.sol\":257:258  2 */\n      0x02\n        /* \"demoTask3/demo3.sol\":253:256  age */\n      sload(0x00)\n        /* \"demoTask3/demo3.sol\":253:258  age*2 */\n      tag_13\n      swap2\n      swap1\n      tag_14\n      jump\t// in\n    tag_13:\n        /* \"demoTask3/demo3.sol\":246:258  return age*2 */\n      swap1\n      pop\n        /* \"demoTask3/demo3.sol\":192:266  function getAge() public view returns (int){\r... */\n      swap1\n      jump\t// out\n        /* \"#utility.yul\":7:122   */\n    tag_16:\n        /* \"#utility.yul\":92:115   */\n      tag_18\n        /* \"#utility.yul\":109:114   */\n      dup2\n        /* \"#utility.yul\":92:115   */\n      tag_19\n      jump\t// in\n    tag_18:\n        /* \"#utility.yul\":87:90   */\n      dup3\n        /* \"#utility.yul\":80:116   */\n      mstore\n        /* \"#utility.yul\":7:122   */\n      pop\n      pop\n      jump\t// out\n        /* \"#utility.yul\":128:346   */\n    tag_8:\n        /* \"#utility.yul\":219:223   */\n      0x00\n        /* \"#utility.yul\":257:259   */\n      0x20\n        /* \"#utility.yul\":246:255   */\n      dup3\n        /* \"#utility.yul\":242:260   */\n      add\n        /* \"#utility.yul\":234:260   */\n      swap1\n      pop\n        /* \"#utility.yul\":270:339   */\n      tag_21\n        /* \"#utility.yul\":336:337   */\n      0x00\n        /* \"#utility.yul\":325:334   */\n      dup4\n        /* \"#utility.yul\":321:338   */\n      add\n        /* \"#utility.yul\":312:318   */\n      dup5\n        /* \"#utility.yul\":270:339   */\n      tag_16\n      jump\t// in\n    tag_21:\n        /* \"#utility.yul\":128:346   */\n      swap3\n      swap2\n      pop\n      pop\n      jump\t// out\n        /* \"#utility.yul\":352:1343   */\n    tag_14:\n        /* \"#utility.yul\":391:398   */\n      0x00\n        /* \"#utility.yul\":414:433   */\n      tag_23\n        /* \"#utility.yul\":431:432   */\n      dup3\n        /* \"#utility.yul\":414:433   */\n      tag_19\n      jump\t// in\n    tag_23:\n        /* \"#utility.yul\":409:433   */\n      swap2\n      pop\n        /* \"#utility.yul\":447:466   */\n      tag_24\n        /* \"#utility.yul\":464:465   */\n      dup4\n        /* \"#utility.yul\":447:466   */\n      tag_19\n      jump\t// in\n    tag_24:\n        /* \"#utility.yul\":442:466   */\n      swap3\n      pop\n        /* \"#utility.yul\":648:649   */\n      dup3\n        /* \"#utility.yul\":580:646   */\n      0x7fffffffffffffffffffffffffffffffffffffffffffffffffffffffffffffff\n        /* \"#utility.yul\":576:650   */\n      div\n        /* \"#utility.yul\":573:574   */\n      dup3\n        /* \"#utility.yul\":570:651   */\n      gt\n        /* \"#utility.yul\":565:566   */\n      0x00\n        /* \"#utility.yul\":562:563   */\n      dup5\n        /* \"#utility.yul\":558:567   */\n      sgt\n        /* \"#utility.yul\":554:555   */\n      0x00\n        /* \"#utility.yul\":551:552   */\n      dup5\n        /* \"#utility.yul\":547:556   */\n      sgt\n        /* \"#utility.yul\":543:568   */\n      and\n        /* \"#utility.yul\":539:652   */\n      and\n        /* \"#utility.yul\":536:675   */\n      iszero\n      tag_25\n      jumpi\n        /* \"#utility.yul\":655:673   */\n      tag_26\n      tag_27\n      jump\t// in\n    tag_26:\n        /* \"#utility.yul\":536:675   */\n    tag_25:\n        /* \"#utility.yul\":859:860   */\n      dup2\n        /* \"#utility.yul\":791:857   */\n      0x8000000000000000000000000000000000000000000000000000000000000000\n        /* \"#utility.yul\":786:861   */\n      sdiv\n        /* \"#utility.yul\":783:784   */\n      dup4\n        /* \"#utility.yul\":779:862   */\n      slt\n        /* \"#utility.yul\":774:775   */\n      0x00\n        /* \"#utility.yul\":771:772   */\n      dup5\n        /* \"#utility.yul\":767:776   */\n      slt\n        /* \"#utility.yul\":763:764   */\n      0x00\n        /* \"#utility.yul\":760:761   */\n      dup5\n        /* \"#utility.yul\":756:765   */\n      sgt\n        /* \"#utility.yul\":752:777   */\n      and\n        /* \"#utility.yul\":748:863   */\n      and\n        /* \"#utility.yul\":745:886   */\n      iszero\n      tag_28\n      jumpi\n        /* \"#utility.yul\":866:884   */\n      tag_29\n      tag_27\n      jump\t// in\n    tag_29:\n        /* \"#utility.yul\":745:886   */\n    tag_28:\n        /* \"#utility.yul\":1070:1071   */\n      dup3\n        /* \"#utility.yul\":1002:1068   */\n      0x8000000000000000000000000000000000000000000000000000000000000000\n        /* \"#utility.yul\":997:1072   */\n      sdiv\n        /* \"#utility.yul\":994:995   */\n      dup3\n        /* \"#utility.yul\":990:1073   */\n      slt\n        /* \"#utility.yul\":985:986   */\n      0x00\n        /* \"#utility.yul\":982:983   */\n      dup5\n        /* \"#utility.yul\":978:987   */\n      sgt\n        /* \"#utility.yul\":974:975   */\n      0x00\n        /* \"#utility.yul\":971:972   */\n      dup5\n        /* \"#utility.yul\":967:976   */\n      slt\n        /* \"#utility.yul\":963:988   */\n      and\n        /* \"#utility.yul\":959:1074   */\n      and\n        /* \"#utility.yul\":956:1097   */\n      iszero\n      tag_30\n      jumpi\n        /* \"#utility.yul\":1077:1095   */\n      tag_31\n      tag_27\n      jump\t// in\n    tag_31:\n        /* \"#utility.yul\":956:1097   */\n    tag_30:\n        /* \"#utility.yul\":1280:1281   */\n      dup3\n        /* \"#utility.yul\":1212:1278   */\n      0x7fffffffffffffffffffffffffffffffffffffffffffffffffffffffffffffff\n        /* \"#utility.yul\":1207:1282   */\n      sdiv\n        /* \"#utility.yul\":1204:1205   */\n      dup3\n        /* \"#utility.yul\":1200:1283   */\n      slt\n        /* \"#utility.yul\":1195:1196   */\n      0x00\n        /* \"#utility.yul\":1192:1193   */\n      dup5\n        /* \"#utility.yul\":1188:1197   */\n      slt\n        /* \"#utility.yul\":1184:1185   */\n      0x00\n        /* \"#utility.yul\":1181:1182   */\n      dup5\n        /* \"#utility.yul\":1177:1186   */\n      slt\n        /* \"#utility.yul\":1173:1198   */\n      and\n        /* \"#utility.yul\":1169:1284   */\n      and\n        /* \"#utility.yul\":1166:1307   */\n      iszero\n      tag_32\n      jumpi\n        /* \"#utility.yul\":1287:1305   */\n      tag_33\n      tag_27\n      jump\t// in\n    tag_33:\n        /* \"#utility.yul\":1166:1307   */\n    tag_32:\n        /* \"#utility.yul\":1335:1336   */\n      dup3\n        /* \"#utility.yul\":1332:1333   */\n      dup3\n        /* \"#utility.yul\":1328:1337   */\n      mul\n        /* \"#utility.yul\":1317:1337   */\n      swap1\n      pop\n        /* \"#utility.yul\":352:1343   */\n      swap3\n      swap2\n      pop\n      pop\n      jump\t// out\n        /* \"#utility.yul\":1349:1425   */\n    tag_19:\n        /* \"#utility.yul\":1385:1392   */\n      0x00\n        /* \"#utility.yul\":1414:1419   */\n      dup2\n        /* \"#utility.yul\":1403:1419   */\n      swap1\n      pop\n        /* \"#utility.yul\":1349:1425   */\n      swap2\n      swap1\n      pop\n      jump\t// out\n        /* \"#utility.yul\":1431:1611   */\n    tag_27:\n        /* \"#utility.yul\":1479:1556   */\n      0x4e487b7100000000000000000000000000000000000000000000000000000000\n        /* \"#utility.yul\":1476:1477   */\n      0x00\n        /* \"#utility.yul\":1469:1557   */\n      mstore\n        /* \"#utility.yul\":1576:1580   */\n      0x11\n        /* \"#utility.yul\":1573:1574   */\n      0x04\n        /* \"#utility.yul\":1566:1581   */\n      mstore\n        /* \"#utility.yul\":1600:1604   */\n      0x24\n        /* \"#utility.yul\":1597:1598   */\n      0x00\n        /* \"#utility.yul\":1590:1605   */\n      revert\n\n    auxdata: 0xa2646970667358221220ceeacdac35203ed78bb4a3d4c03f219441652c0fe553c376d35cf8fa9528174c64736f6c63430008070033\n}\n",
				"bytecode": {
					"linkReferences": {},
					"object": "60806040526028600055603860015534801561001a57600080fd5b506102438061002a6000396000f3fe608060405234801561001057600080fd5b50600436106100365760003560e01c80630e989a381461003b578063967e6e6514610059575b600080fd5b610043610077565b60405161005091906100a2565b60405180910390f35b61006161007d565b60405161006e91906100a2565b60405180910390f35b60015481565b6000600260005461008e91906100bd565b905090565b61009c816101d4565b82525050565b60006020820190506100b76000830184610093565b92915050565b60006100c8826101d4565b91506100d3836101d4565b9250827f7fffffffffffffffffffffffffffffffffffffffffffffffffffffffffffffff0482116000841360008413161615610112576101116101de565b5b817f8000000000000000000000000000000000000000000000000000000000000000058312600084126000841316161561014f5761014e6101de565b5b827f8000000000000000000000000000000000000000000000000000000000000000058212600084136000841216161561018c5761018b6101de565b5b827f7fffffffffffffffffffffffffffffffffffffffffffffffffffffffffffffff05821260008412600084121616156101c9576101c86101de565b5b828202905092915050565b6000819050919050565b7f4e487b7100000000000000000000000000000000000000000000000000000000600052601160045260246000fdfea2646970667358221220ceeacdac35203ed78bb4a3d4c03f219441652c0fe553c376d35cf8fa9528174c64736f6c63430008070033",
					"opcodes": "PUSH1 0x80 PUSH1 0x40 MSTORE PUSH1 0x28 PUSH1 0x0 SSTORE PUSH1 0x38 PUSH1 0x1 SSTORE CALLVALUE DUP1 ISZERO PUSH2 0x1A JUMPI PUSH1 0x0 DUP1 REVERT JUMPDEST POP PUSH2 0x243 DUP1 PUSH2 0x2A PUSH1 0x0 CODECOPY PUSH1 0x0 RETURN INVALID PUSH1 0x80 PUSH1 0x40 MSTORE CALLVALUE DUP1 ISZERO PUSH2 0x10 JUMPI PUSH1 0x0 DUP1 REVERT JUMPDEST POP PUSH1 0x4 CALLDATASIZE LT PUSH2 0x36 JUMPI PUSH1 0x0 CALLDATALOAD PUSH1 0xE0 SHR DUP1 PUSH4 0xE989A38 EQ PUSH2 0x3B JUMPI DUP1 PUSH4 0x967E6E65 EQ PUSH2 0x59 JUMPI JUMPDEST PUSH1 0x0 DUP1 REVERT JUMPDEST PUSH2 0x43 PUSH2 0x77 JUMP JUMPDEST PUSH1 0x40 MLOAD PUSH2 0x50 SWAP2 SWAP1 PUSH2 0xA2 JUMP JUMPDEST PUSH1 0x40 MLOAD DUP1 SWAP2 SUB SWAP1 RETURN JUMPDEST PUSH2 0x61 PUSH2 0x7D JUMP JUMPDEST PUSH1 0x40 MLOAD PUSH2 0x6E SWAP2 SWAP1 PUSH2 0xA2 JUMP JUMPDEST PUSH1 0x40 MLOAD DUP1 SWAP2 SUB SWAP1 RETURN JUMPDEST PUSH1 0x1 SLOAD DUP2 JUMP JUMPDEST PUSH1 0x0 PUSH1 0x2 PUSH1 0x0 SLOAD PUSH2 0x8E SWAP2 SWAP1 PUSH2 0xBD JUMP JUMPDEST SWAP1 POP SWAP1 JUMP JUMPDEST PUSH2 0x9C DUP2 PUSH2 0x1D4 JUMP JUMPDEST DUP3 MSTORE POP POP JUMP JUMPDEST PUSH1 0x0 PUSH1 0x20 DUP3 ADD SWAP1 POP PUSH2 0xB7 PUSH1 0x0 DUP4 ADD DUP5 PUSH2 0x93 JUMP JUMPDEST SWAP3 SWAP2 POP POP JUMP JUMPDEST PUSH1 0x0 PUSH2 0xC8 DUP3 PUSH2 0x1D4 JUMP JUMPDEST SWAP2 POP PUSH2 0xD3 DUP4 PUSH2 0x1D4 JUMP JUMPDEST SWAP3 POP DUP3 PUSH32 0x7FFFFFFFFFFFFFFFFFFFFFFFFFFFFFFFFFFFFFFFFFFFFFFFFFFFFFFFFFFFFFFF DIV DUP3 GT PUSH1 0x0 DUP5 SGT PUSH1 0x0 DUP5 SGT AND AND ISZERO PUSH2 0x112 JUMPI PUSH2 0x111 PUSH2 0x1DE JUMP JUMPDEST JUMPDEST DUP2 PUSH32 0x8000000000000000000000000000000000000000000000000000000000000000 SDIV DUP4 SLT PUSH1 0x0 DUP5 SLT PUSH1 0x0 DUP5 SGT AND AND ISZERO PUSH2 0x14F JUMPI PUSH2 0x14E PUSH2 0x1DE JUMP JUMPDEST JUMPDEST DUP3 PUSH32 0x8000000000000000000000000000000000000000000000000000000000000000 SDIV DUP3 SLT PUSH1 0x0 DUP5 SGT PUSH1 0x0 DUP5 SLT AND AND ISZERO PUSH2 0x18C JUMPI PUSH2 0x18B PUSH2 0x1DE JUMP JUMPDEST JUMPDEST DUP3 PUSH32 0x7FFFFFFFFFFFFFFFFFFFFFFFFFFFFFFFFFFFFFFFFFFFFFFFFFFFFFFFFFFFFFFF SDIV DUP3 SLT PUSH1 0x0 DUP5 SLT PUSH1 0x0 DUP5 SLT AND AND ISZERO PUSH2 0x1C9 JUMPI PUSH2 0x1C8 PUSH2 0x1DE JUMP JUMPDEST JUMPDEST DUP3 DUP3 MUL SWAP1 POP SWAP3 SWAP2 POP POP JUMP JUMPDEST PUSH1 0x0 DUP2 SWAP1 POP SWAP2 SWAP1 POP JUMP JUMPDEST PUSH32 0x4E487B7100000000000000000000000000000000000000000000000000000000 PUSH1 0x0 MSTORE PUSH1 0x11 PUSH1 0x4 MSTORE PUSH1 0x24 PUSH1 0x0 REVERT INVALID LOG2 PUSH5 0x6970667358 0x22 SLT KECCAK256 0xCE 0xEA 0xCD 0xAC CALLDATALOAD KECCAK256 RETURNDATACOPY 0xD7 DUP12 0xB4 LOG3 0xD4 0xC0 EXTCODEHASH 0x21 SWAP5 COINBASE PUSH6 0x2C0FE553C376 0xD3 0x5C 0xF8 STATICCALL SWAP6 0x28 OR 0x4C PUSH5 0x736F6C6343 STOP ADDMOD SMOD STOP CALLER "
				},
				"gasEstimates": {
					"creation": {
						"codeDepositCost": "115800",
						"executionCost": "44377",
						"totalCost": "160177"
					},
					"external": {
						"age2()": "2407",
						"getAge()": "infinite"
					}
				},
				"methodIdentifiers": {
					"age2()": "0e989a38",
					"getAge()": "967e6e65"
				}
			},
			"storageLayout": {
				"storage": [
					{
						"astId": 4,
						"contract": "demoTask3/demo3.sol:First",
						"label": "age",
						"offset": 0,
						"slot": "0",
						"type": "t_int256"
					},
					{
						"astId": 7,
						"contract": "demoTask3/demo3.sol:First",
						"label": "age2",
						"offset": 0,
						"slot": "1",
						"type": "t_int256"
					}
				],
				"types": {
					"t_int256": {
						"encoding": "inplace",
						"label": "int256",
						"numberOfBytes": "32"
					}
				}
			},
			"userdoc": {
				"kind": "user",
				"methods": {},
				"version": 1
			}
		}
	}
}